:10053F00020A00560224000202080000180C001FD5
:10054F0086FF00F6400A00FC0001000001AE00002B
:06055F0000000000000096
:10041000C285C284D286E4F513E51254C0F512E514
:1004200011F511E4F510E5134525F513E512452402
:10043000F512E511F511E510F510E4F51BF51AE5D7
:1004400019F519E4F518E51B450BF51BE51A450AE6
:10045000F51AE519F519E518F518E4F51FF51EE587
:100460001D54F0F51DE4F51CE51F4509F51FE51EBB
:0D0470004508F51EE51DF51DE51CF51C22D7
:10030800E48F4DF54CF54BF54AAE4CAD4BAC4A7805
:10031800181202398F4D8E4C8D4B8C4AE54D45484D
:10032800F54DE54C4547F54CE54B4546F54BE54A5B
:100338004545F54AC286E4F549E4FFFEFD7C04A97B
:1003480049A8011202258F518E508D4F8C4EC285BF
:10035800E54D5551FFE54C5550FEE54B554FFDE534
:100368004A554EFCAB51AA50A94FA84EC3120214CD
:100378007004D2848002C284D2850549E549B41B41
:07038800B8C285C284D286D1
:01038F00224B
:1005D100E4F543E54325E025E0240CF812024C8FB5
:1005E100488E478D468C45AF431203080543E543CA
:0505F100C3940540DE8B
:0105F60022E2
:0606BE00A283E433FF22D9
:1002580074771200C390000174611200D5900002F7
:1002680074691200D590000374741200D5900004CC
:1002780074201200D590000574661200D59000060F
:10028800746F1200D590000774721200D5900008A0
:1002980074201200D590000974461200D590000A07
:1002A80074531200D590000B74201200D590000CE6
:1002B800746C1200D590000D746F1200D590000E6A
:1002C80074631200D590000F746B1200D590001063
:1002D80074651200D590001174641200D590001254
:1002E800742E1200D5900013742E1200D5900014AD
:1002F800742E1200D5900015740A1200D57F1622AC
:1004C300ED75F06484FF24301200C3EF75F064A46B
:1004D300FFC3ED9FFD75F00A84FF243090000112E5
:1004E30000D5EF75F00AA4FFC3ED9F2430900002FE
:0D04F3001200D5900003740A1200D57F049A
:0105000022D8
:0A05A6008C468D478B438A4489453B
:1005B000E546FD1204C3AE071EE547FDAB43EE75ED
:1005C00083002545F9E5833544FA1204C3EF2EFF75
:0105D0002208
:1003900012067C12057812050112008F1206A112B6
:1003A00006AB7FE87E0312063F7B007A00792612B7
:1003B00002588F4080081206BEEF6401601A1204D2
:1003C000101205D17B007A007926AD4012061C7F01
:1003D000F47E0112063F80DE1206CEEF60FA7B004B
:1003E0007A00793F120689E53F70EDE4FF12065F5F
:1003F0008E418F427B007A007926AD42AC411205D6
:10040000A68F407B007A007926AD4012061C80C87A
:0605650004640000258083
:0A06A10053847F5384BF438410226A
:0906B500E5851200C35384FE2206
:0B0696008F85E58430E1FB5384FD22DA
:06061C008B438A4489456E
:10062200E4FEEEC39D5015AB43AA44A9458E8275E4
:0C0632008300120096FF1206960E80E670
:01063E002299
:06056B00045F016E360082
:100578005394F75393F743947053938F43920853CC
:1005880091F75392FE5391FE43BA0453CAFB53C9E1
:0E059800FB43CA0853C9F743CA1053C9EF22E8
:0D067C0090FE017401F090FE007418F02251
:10050100E47F04FEFDFCAB67AA66A965A86412003E
:10051100F7A804A905AA06AB07AF62AE61AD60AC4E
:100521005F120182C3E49FFFE49EFEEFF5D7EEF573
:0D053100D6438F04438E04538EF7438E1083
:01053E00229A
:04008F0043AF102249
:0300930002047DE7
:10047D00C0E0C0F0C083C082C0D075D000C000C045
:10048D0001C002C003C004C005C006C0077B007ACE
:10049D000079631206B5AF631206C4D007D006D03B
:1004AD0005D004D003D002D001D000D0D0D082D05E
:0604BD0083D0F0D0E03214
:06057100015D00015E00C7
:0606C4008F52755D01225A
:0306CE00AF5D22FB
:0D068900E55D6008E5521200C3E4F55D2256
:0406CA00E4F55D22D4
:1005F700E4F568F569C3E569955EE568940050140C
:1006070074532569F8E6FF1206960569E56970E5F2
:04061700056880E111
:01061B0022BC
:0A06AB0043BC8043DE2053DEF02242
:10065F0053BCF0EF42BC43BC40E5BC20E0FBAFBD58
:0C066F00EF7F00FEADBEEF2DFFE43EFE6D
:01067B00225C
:10063F00E4FDFCC3ED9FEC9E5015E4FBFA0BBB00F1
:0F064F00010ABA04F8BB4CF50DBD00010C80E4A4
:01065E002279
:03000000020003F8
:0C000300787FE4F6D8FD75816902004AA0
:10009600BB010CE58229F582E5833AF583E022501F
:1000A60006E92582F8E622BBFE06E92582F8E22269
:0D00B600E58229F582E5833AF583E4932283
:1000C300BB010689828A83F0225002F722BBFE011C
:0200D300F32216
:1000D500F8BB010DE58229F582E5833AF583E8F061
:1000E500225006E92582C8F622BBFE05E92582C80D
:0200F500F222F5
:1000F700E88FF0A4CC8BF0A42CFCE98EF0A42CFCA8
:100107008AF0EDA42CFCEA8EF0A4CDA8F08BF0A425
:100117002DCC3825F0FDE98FF0A42CCD35F0FCEB84
:100127008EF0A4FEA9F0EB8FF0A4CFC5F02ECD3949
:0F013700FEE43CFCEAA42DCE35F0FDE43CFC22B6
:1001460075F008758200EF2FFFEE33FECD33CDCC70
:1001560033CCC58233C5829BED9AEC99E5829840F3
:100166000CF582EE9BFEED9AFDEC99FC0FD5F0D6D0
:10017600E4CEFBE4CDFAE4CCF9A88222B800C1B9FA
:100186000059BA002DEC8BF084CFCECDFCE5F0CB38
:10019600F97818EF2FFFEE33FEED33FDEC33FCEB71
:1001A60033FB10D703994004EB99FB0FD8E5E4F92C
:1001B600FA227818EF2FFFEE33FEED33FDEC33FC19
:1001C600C933C910D7059BE99A4007EC9BFCE99A0D
:1001D600F90FD8E0E4C9FAE4CCFB2275F010EF2F52
:1001E600FFEE33FEED33FDCC33CCC833C810D70752
:1001F6009BEC9AE899400AED9BFDEC9AFCE899F88D
:0E0206000FD5F0DAE4CDFBE4CCFAE4C8F9221F
:10021400EB9FF5F0EA9E42F0E99D42F0E89C45F040
:0102240022B7
:10022500E86010ECA2E713FCED13FDEE13FEEF13EF
:04023500FFD8F022DC
:10023900E8600FEFC333FFEE33FEED33FDEC33FC23
:03024900D8F122C7
:0C024C00E6FC08E6FD08E6FE08E6FF22DE
:10000F00020390E493A3F8E493A34003F68001F274
:10001F0008DFF48029E493A3F85407240CC8C333F2
:10002F00C4540F4420C8834004F456800146F6DFC1
:10003F00E4800B010204081020408090053FE47E0D
:10004F00019360BCA3FF543F30E509541FFEE493B6
:10005F00A360010ECF54C025E060A840B8E493A37D
:10006F00FAE493A3F8E493A3C8C582C8CAC583CAA8
:10007F00F0A3C8C582C8CAC583CADFE9DEE780BE60
:010577000083
:00000001FF
