:100B35004400424586600042000201AE4100350492
:100B450044003A0000000058001C001F86FF00F614
:100B5500800A00E00000000001AE00000000000077
:100B6500000044003E4586099A42000001AC410060
:100B7500340444003600EB851E580004001F86FF30
:100B850000F6800A00E00000000001AE0000000051
:040B9500000000005C
:09113D00C285C2A7D281D283222F
:10079A00900020A3E0FDA3E0FEE4FFEE54C0FEE4D7
:1007AA00FC900020120595900020E0F8A3E0F9A340
:1007BA00E0FAA3E0FB900035E0FFEB4FFFEAFEE929
:1007CA00FDE8FC900020120595900028A3E0FDE4C6
:1007DA00FFFEE4FC900028120595900028E0F8A39B
:1007EA00E0F9A3E0FAA3E0FB900002E0FEA3E0FF39
:1007FA00EB4FFFEA4EFEE9FDE8FC90002812059552
:10080A00E4FFFEFDFC90002C12059590002CE0FC04
:10081A00A3E0FDA3E0FEA3E0FF90003AE0F8A3E026
:10082A00F9A3E0FAA3E0FBEF4BFFEE4AFEED49FD28
:10083A00EC48FC90002C120595900008A3E0FDA35B
:10084A00E0FEE4FFEE54C0FEE4FC900008120595B9
:10085A00900008E0F8A3E0F9A3E0FAA3E0FB900017
:10086A0034E0FFEB4FFFEAFEE9FDE8FC90000812D6
:10087A000595900010A3E0FDE4FFFEE4FC90001053
:10088A00120595900010E0F8A3E0F9A3E0FAA3E0BE
:10089A00FB900000E0FEA3E0FFEB4FFFEA4EFEE90B
:1008AA00FDE8FC900010120595E4FFFEFDFC9000A7
:1008BA0014120595900014E0FCA3E0FDA3E0FEA34A
:1008CA00E0FF900036E0F8A3E0F9A3E0FAA3E0FB2A
:1008DA00EF4BFFEE4AFEED49FDEC48FC9000140296
:0208EA00059572
:0505A100900048EFF09E
:1005A600900042E0F8A3E0F9A3E0FAA3E0FBC00064
:1005B600C001C002C003900048E0FC12033ED00315
:1005C600D002D001D00012009D900042120595E4A1
:1005D600FBFA79207841900042E0FCA3E0FDA3E01D
:1005E600FEA3E0FF1202979000491205959000497C
:1005F600E0FCA3E0FDA3E0FEA3E0FF12037290007F
:1006060002EEF0A3EFF0900049E0FCA3E0FDA3E0CA
:10061600FEA3E0FFC004C005C006C007900002E0CC
:10062600FCA3E0FDE4120339A804A905AA06AB075A
:10063600D007D006D005D0041200999000491205C3
:1006460095900049E0FCA3E0FDA3E0FEA3E0FFE4F3
:10065600FBFA7980784512018E9000491205959033
:100666000049E0FCA3E0FDA3E0FEA3E0FFE4FBFA03
:100676007980784512018E900049120595900049BF
:10068600E0FCA3E0FDA3E0FEA3E0FF1203729000EE
:100696003A12059590003EE0F8A3E0F9A3E0FAA32C
:1006A600E0FBC000C001C002C003900048E0FC129D
:1006B600033ED003D002D001D00012009D90003E30
:1006C600120595E4FBFA7920784190003EE0FCA300
:1006D600E0FDA3E0FEA3E0FF120297900049120599
:1006E60095900049E0FCA3E0FDA3E0FEA3E0FF1225
:1006F6000372900000EEF0A3EFF0900049E0FCA337
:10070600E0FDA3E0FEA3E0FFC004C005C006C007ED
:10071600900000E0FCA3E0FDE4120339A804A9055B
:10072600AA06AB07D007D006D005D00412009990D0
:100736000049120595900049E0FCA3E0FDA3E0FE08
:10074600A3E0FFE4FBFA7980784512018E90004918
:10075600120595900049E0FCA3E0FDA3E0FEA3E0AE
:10076600FFE4FBFA7980784512018E900049120564
:1007760095900049E0FCA3E0FDA3E0FEA3E0FF1294
:10078600037290003612059512113D12079A120D4A
:040796001E020D6EC4
:1008EC00E4FCFDFE900054120595900054E0FCA32E
:1008FC00E0FDA3E0FEA3E0FF7818120582900054FF
:10090C00120595900054E0FCA3E0FDA3E0FEA3E0EB
:10091C00FF90004FE0F8A3E0F9A3E0FAA3E0FBEFAF
:10092C004BFFEE4AFEED49FDEC48FC9000541205DD
:10093C0095C283E4900053F0900053E0F9C3941BEC
:10094C00505BE4FFFEFD7C04A80112056E9000587C
:10095C00120595C285900058E0FCA3E0FDA3E0FED3
:10096C00A3E0FF900054E0F8A3E0F9A3E0FAA3E0C1
:10097C005FFFEA5EFEE95DFDE85CFCA3E0F8A3E046
:10098C00F9A3E0FAA3E0FBC312055D7004D2A780C3
:10099C0002C2A7D285900053E004F0809BC285C2AE
:0309AC00A7D2834C
:0109AF002225
:1009B000E4FCFDFE900054120595900054E0FCA369
:1009C000E0FDA3E0FEA3E0FF78181205829000543A
:1009D000120595900054E0FCA3E0FDA3E0FEA3E027
:1009E000FF90004FE0F8A3E0F9A3E0FAA3E0FBEFEB
:1009F0004BFFEE4AFEED49FDEC48FC900054120519
:100A000095C281E4900053F0900053E0F9C3941B29
:100A1000505BE4FFFEFD7C04A80112056E900058B7
:100A2000120595C285900058E0FCA3E0FDA3E0FE0E
:100A3000A3E0FF900054E0F8A3E0F9A3E0FAA3E0FC
:100A40005FFFEA5EFEE95DFDE85CFCA3E0F8A3E081
:100A5000F9A3E0FAA3E0FBC312055D7004D2A780FE
:100A600002C2A7D285900053E004F0809BC285C2E9
:030A7000A7D28189
:010A73002260
:100D1E00E490004DF090004DE0FFC00725E025E087
:100D2E00241CF582E43400F583E0FCA3E0FDA3E08F
:100D3E00FEA3E0FF90004F120595D0071208ECD2EB
:100D4E00837F017E00121042C2837F017E0012104B
:0F0D5E0042D28390004DE004F0E0C3940540B60C
:010D6D002263
:100D6E00E490004DF090004DE0FFC00725E025E037
:100D7E002404F582E43400F583E0FCA3E0FDA3E057
:100D8E00FEA3E0FF90004F120595D0071209B0D2D6
:100D9E00817F017E00121042C2817F017E001210FF
:0F0DAE0042D28190004DE004F0E0C3940540B6BE
:010DBD002213
:06115600A286E433FF2233
:06115C00A2A6E433FF220D
:100BB0001210F0120E0D120E5912114F12112912AD
:100BC0001133120F911211047FC87E0012104212CD
:100BD000079A12113D120D1E120D6E7FC87E001273
:100BE0001042120A74EF60FA90005FE0245E601118
:100BF000146018240270EB900061E0FF12101B805B
:100C0000E1900061E0FF120CC980D7900061E0FF25
:050C1000120F6080CD11
:070B990044007300002580F9
:0A11290053847F5384BF43841022D7
:0B111300E58430E0037F01227F002212
:09114600E5851204205384FE2209
:0B111E008F85E58430E1FB5384FD2247
:1010DA00E4FFEFC39D50030F80F88F8275830012DF
:0610EA0003F3FF02111EDA
:070BA00044006E016E3600F7
:100E0D005396BF5395BF43968053957F439402539A
:100E1D0093FD4394085393F74394205393DF5394D6
:100E2D00405393BF5392025391FD4392015391FE50
:100E3D004392085391F743BA0453CAFB53C9FB437A
:0C0E4D00CA0853C9F743CA1053C9EF226A
:1010F00043BA8090FE017401F090FE02E030E0F906
:0411000053BA7F223D
:100E5900E47F04FEFDFC900073E0F8A3E0F9A3E051
:100E6900FAA3E0FB120432A804A905AA06AB07906D
:100E7900006EE0FCA3E0FDA3E0FEA3E0FF1204BDC9
:100E8900C3E49FFFE49EFEEFF5D7EEF5D6438E044B
:060E9900538EF7438E109A
:010E9F002230
:07114F0043AF1043A880220A
:03009300020DBE9D
:100DBE00C0E0C0F0C083C082C0D075D000C000C0FB
:100DCE0001C002C003C004C005C006C00712111343
:100DDE00BF01117B017A007972121146900072E008
:100DEE00FF121062D007D006D005D004D003D00277
:0F0DFE00D001D000D0D0D082D083D0F0D0E0325E
:080BA70041006D0041006C00EB
:0F1104007808760308761B788676010876EA224B
:1010620090006CE0B40502E4F090006CE0245FF5BF
:0F10720082E43400F583EFF090006CE004F0228C
:100C150090006CE0FEC39F5002AF06C3EE9FFEE45A
:100C2500FDEDC39E501CEF2D245FF582E43400F5E5
:100C350083E0FC745C2DF582E43400F583ECF00D63
:100C450080DFE4FDEDC39E501B745C2DF582E4341A
:100C550000F583E0FF745F2DF582E43400F583EF42
:090C6500F00D80E090006CEEF04F
:010C6E002263
:100A740090006CE0FBC3940350037F002290005F5E
:100A8400E064A1702E900061E0FF6007640A6003D7
:100A9400020B2DEBC3940450037F00227B017A00E8
:100AA400795F7D03120FEF900062E06F600280793E
:100AB4007F012290005FE064A27033900061E0FF48
:100AC40064016007EF64026002805E90006CE0C322
:100AD400940550037F00227B017A00795F7D041224
:100AE4000FEF900063E06F6002803E7F0122900070
:100AF4005FE064A37033900061E0FF64016007EF7E
:100B040064816002802390006CE0C3940550037FED
:100B140000227B017A00795F7D04120FEF9000635D
:100B2400E06F600280037F01227F03120C157F00B7
:010B3400229E
:100EE200E4900046F0A3F090006DE0FF900046E031
:100EF200FCA3E0FDC39FEC9400501F74642DF582A7
:100F0200E43400F583E0FF12111E900047E004F084
:0F0F120070D5900046E004F080CDE490006DF0C3
:010F210022AD
:100F220090006474A1F0A37405F0E4A3F0A3F0129E
:100F32001081900068EFF0121081900069EFF012BA
:100F4200109F90006AEFF07B017A0079647D0712AE
:0E0F52000FEF90006BEFF090006D7408F0222E
:100C6F0090006474A1F0A37402F0A314F012115C4D
:100C7F00900067EFF0900066E0FF25E0A3F0E0FE44
:100C8F00C006121156D0E04F900067F0900066E05A
:100C9F00FF25E0A3F0E0FEC006121156D0E04F9002
:100CAF000067F07B017A0079647D04120FEF9000EA
:0A0CBF0068EFF090006D7405F0225C
:100FC10090006474A1F0A37402F0A3F090005EE0BD
:100FD100FFC313900067F07B017A0079647D0412EE
:0E0FE1000FEF900068EFF090006D7405F022A5
:10101B00EF14600C14600E2402700D120F22800866
:10102B00120C6F8003120FC17F04120C1590006D10
:07103B00E06003120EE22247
:100CC900EF6401604BEFB40247900062E025E02435
:100CD90008F8E6FC08E6FDE412033990004612051F
:100CE90095900046E0FCA3E0FDA3E0FEA3E0FFE44D
:100CF900FBFA7920784112029790004612059590E7
:100D09000046E0FCA3E0FDA3E0FEA3E0FF120EA075
:050D19007F05020C152E
:050F6000900046EFF0D7
:100F6500BF010C900062E0547FFF90004780149011
:100F75000046E0B48111900062E0547F900047F094
:0C0F8500F404FFF01205A17F05020C151A
:0A11330043BC8043DE2053DEF022AF
:1010BD0053BCF0EF42BC43BC40E5BC20E0FBAFBDF0
:0C10CD00EF7F00FEADBEEF2DFFE43EFE05
:0110D90022F4
:10108100E4FF1210BD7F647E00121042E4FF1210D3
:0D109100BDEEC4F854F0C8EFC4540F48FF82
:01109E00222F
:10109F00E4FF1210BD7F647E00121042E4FF1210B5
:0D10AF00BDEEC4F854F0C8EFC4540F48FF64
:0110BC002211
:10104200E4FDFCC3ED9FEC9E5015E4FBFA0BBB00E4
:0F105200010ABA04F8BB4CF50DBD00010C80E497
:01106100226C
:0B0FEF00900046EBF0A3EAF0A3E9F04D
:100FFA00E4FFFEEEC39D5018900046E0FBA3E0FA22
:10100A00A3E0F98E827583001203F32FFF0E80E3AB
:01101A0022B3
:100F910053F13F43BA8090FFF0745DF0A374C0F049
:100FA100A3E054E0F090FF34E04480F0E04440F0EE
:100FB100E054E7F0E04408F0E054F8F053BA7F223F
:060EA00090004A120595C6
:100EA600E4FFFE7D707C4390004AE0F8A3E0F9A3DE
:100EB600E0FAA3E0FB12018E120372AD07AC0653F3
:100EC600FE7F43BA80EC90FF30F0A3EDF0A3745D93
:0B0ED600F0A374C0F053BA7F43FE800D
:010EE10022EE
:100096000203DEE86480F8E933E83360110460F0B7
:1000A600ED33EC337009E8FCE9FDEAFEEBFF2204D0
:1000B60060DED3EB9FEA9EE99DE8C2E78CF0C2F7CB
:1000C60095F0400CE8CCF8E9CDF9EACEFAEBCFFB97
:1000D6001203A985D0F05804700320D5B3E8047044
:1000E600075002B2D50203E892D5EC0460F7E4CCDF
:1000F600C0E0C398F8603B94186008400DD0E0FB60
:100106000203C0E4FBFAC9FC8028E830E406E4C92F
:10011600FBE4CAFCE830E305E4C9CACBFCE85407B3
:100126006010F8C3E913F9EA13FAEB13FBEC13FCBE
:10013600D8F130F52FC3E49CFCEF9BFFEE9AFEED61
:1001460099FDD0E0FBEF4E4D4C701222DB0302030B
:10015600E5EC2CFCEF33FFEE33FEED33FDED30E73F
:10016600EB0203C0EF2BFFEE3AFEED39FDD0E0FBCC
:1001760050130BBB00030203E8ED13FDEE13FEEF75
:0801860013FFEC13FC0203C09F
:10018E00EC4D6011E8497017ED33EC3304600DE46B
:10019E00FCFFFEFD22E933E8330470F80203DE12A1
:1001AE0003A958046009E4CC2481500628500902A2
:1001BE0003E82840030203E5C0E0EB4A7044B9802F
:1001CE0006D0E0FB0203D4EF4E701CBD8008EBFF9F
:1001DE00EAFEE9FD80EBE98DF0A4FEE5F002027780
:1001EE00E9CDF9EAFEEBFFEF89F0A4FCE5F0CE894C
:1001FE00F0A42EFFE435F0CD89F0A42DFEE435F009
:10020E008067EF4E7005BD80D780C3EF8BF0A4AC36
:10021E00F0EE8BF0A42CFCE435F0F8EF8AF0A42C71
:10022E00E5F038FCE433CB8DF0A42CFCE5F03BF884
:10023E00EE8AF0A42CFCE5F038F8E433CF89F0A474
:10024E002CFCE5F038CF3400CE89F0A42FFFE5F07A
:10025E003EFEE433C98DF0A42EFEE5F039CD8AF0D2
:10026E00A42FFFE5F03EFEE43DFD33D0E0FB50074A
:10027E000BBB000F0203E8EC2CFCEF33FFEE33FE5A
:06028E00ED33FD0203C088
:100294000203E8EC5D046005E8590470030203DE20
:1002A4001203A9580460F6EC4860F2EC7004FDFEF9
:1002B400FF22C860DB2481C85009C398600250063D
:1002C4000203E59850CAF582E9294B4A7005AB82CE
:1002D4000203D475F0007C1A7880C3EF9BEE9AED8C
:1002E40099400DC3EF9BFFEE9AFEED99FDE842F0B5
:1002F400DC23ACF0D0E0FFD0E0FED0E0FDAB822008
:10030400E7101BEB60BAEC2CFCEF33FFEE33FEED91
:1003140033FD0203C0E803F830E705C0F075F000D0
:10032400EF2FFFEE33FEED33FD40B830E7C280AA75
:1003340075F020800E75F010800575F0087D007E44
:10034400007F003392D530D50312054FEC334010B3
:10035400EF33FFEE33FEED33FDEC33FCD5F0ED224D
:0E036400E5F0247EA2D513CC92E7CDCEFF2289
:10037200EDD2E7CD33EC3392D524814006E4FFFE83
:10038200FDFC22FCE4CFCECDCC24E0501174FF80E2
:10039200EDC3CC13CCCD13CDCE13CECF13CF04707F
:0703A200F030D5DE02054F2B
:1003A900E9D2E7C933E833F892D5EDD2E7CD33EC9A
:0703B90033FC5002B2D52213
:1003C000EC30E7100FBF000C0EBE00080DBD00049E
:1003D0000BEB6014A2D5EB13FCED92E7FD2274FF4A
:1003E000FCFDFEFF22E480F8A2D574FF13FC7D80A3
:0303F000E480EFB7
:03000000020003F8
:0C000300787FE4F6D8FD75818702004A82
:1003F300BB010CE58229F582E5833AF583E02250BF
:1004030006E92582F8E622BBFE06E92582F8E22208
:0D041300E58229F582E5833AF583E4932222
:10042000BB010689828A83F0225002F722BBFE01BB
:02043000F322B5
:10043200E88FF0A4CC8BF0A42CFCE98EF0A42CFC69
:100442008AF0EDA42CFCEA8EF0A4CDA8F08BF0A4E7
:100452002DCC3825F0FDE98FF0A42CCD35F0FCEB46
:100462008EF0A4FEA9F0EB8FF0A4CFC5F02ECD390B
:0F047200FEE43CFCEAA42DCE35F0FDE43CFC2278
:1004810075F008758200EF2FFFEE33FECD33CDCC32
:1004910033CCC58233C5829BED9AEC99E5829840B5
:1004A1000CF582EE9BFEED9AFDEC99FC0FD5F0D692
:1004B100E4CEFBE4CDFAE4CCF9A88222B800C1B9BC
:1004C1000059BA002DEC8BF084CFCECDFCE5F0CBFA
:1004D100F97818EF2FFFEE33FEED33FDEC33FCEB33
:1004E10033FB10D703994004EB99FB0FD8E5E4F9EE
:1004F100FA227818EF2FFFEE33FEED33FDEC33FCDB
:10050100C933C910D7059BE99A4007EC9BFCE99ACE
:10051100F90FD8E0E4C9FAE4CCFB2275F010EF2F13
:10052100FFEE33FEED33FDCC33CCC833C810D70713
:100531009BEC9AE899400AED9BFDEC9AFCE899F84E
:0E0541000FD5F0DAE4CDFBE4CCFAE4C8F922E1
:0E054F00C3E49FFFE49EFEE49DFDE49CFC22BD
:10055D00EB9FF5F0EA9E42F0E99D42F0E89C45F0F4
:01056D00226B
:10056E00E86010ECA2E713FCED13FDEE13FEEF13A3
:04057E00FFD8F02290
:10058200E8600FEFC333FFEE33FEED33FDEC33FCD7
:03059200D8F1227B
:0C059500ECF0A3EDF0A3EEF0A3EFF022D9
:10000F00020BB0E493A3F8E493A34003F68001F24C
:10001F0008DFF48029E493A3F85407240CC8C333F2
:10002F00C4540F4420C8834004F456800146F6DFC1
:10003F00E4800B0102040810204080900B35E47E11
:10004F00019360BCA3FF543F30E509541FFEE493B6
:10005F00A360010ECF54C025E060A840B8E493A37D
:10006F00FAE493A3F8E493A3C8C582C8CAC583CAA8
:10007F00F0A3C8C582C8CAC583CADFE9DEE780BE60
:010BAF000045
:00000001FF
