:10097600044A45866000020A01AE013D04044200B5
:100986000000001824001F86FF00F6800A00E00021
:1009960000000001AE000000000000000004464513
:1009A6008609D9020801AC013C04043E00EC50481B
:1009B600180C001F86FF00F6800A00E00000000009
:0A09C60001AE000000000000000078
:090DF600C285C2A7D281D283227A
:1006F700E4F52BE52A54C0F52AE529F529E4F52880
:10070700E52B453DF52BE52AF52AE529F529E528C9
:10071700F528E4F533F532E531F531E4F530E53325
:10072700450BF533E532450AF532E531F531E5306C
:10073700F530E4F537F536F535F534E5374545F564
:1007470037E5364544F536E5354543F535E5344572
:1007570042F534E4F513E51254C0F512E511F5112D
:10076700E4F510E513453CF513E512F512E511F52F
:1007770011E510F510E4F51BF51AE519F519E4F57F
:1007870018E51B4509F51BE51A4508F51AE519F59E
:1007970019E518F518E4F51FF51EF51DF51CE51FFD
:1007A7004541F51FE51E4540F51EE51D453FF51D75
:0707B700E51C453EF51C2284
:0205A1008F4F7A
:1005A300AB4DAA4CA94BA84AC000C001C002C0036E
:1005B300AC4FEC12033ED003D002D001D0001200A6
:1005C3009D8F4D8E4C8D4B8C4AE4FBFA79207841FC
:1005D3001202978F538E528D518C501203728E0AD2
:1005E3008F0BAF53AE52AD51AC50C004C005C00623
:1005F300C007AC0AAD0BE4120339A804A905AA0687
:10060300AB07D007D006D005D0041200998F538EC4
:10061300528D518C50E4FBFA7980784512018E8F0C
:10062300538E528D518C50E4FBFA79807845120138
:100633008E8F538E528D518C501203728F458E4480
:100643008D438C42AB49AA48A947A846C000C001C4
:10065300C002C003AC4FEC12033ED003D002D00162
:10066300D00012009D8F498E488D478C46E4FBFADB
:10067300792078411202978F538E528D518C5012EC
:1006830003728E088F09AF53AE52AD51AC50C00404
:10069300C005C006C007AC08AD09E4120339A804BD
:1006A300A905AA06AB07D007D006D005D0041200CF
:1006B300998F538E528D518C50E4FBFA7980784593
:1006C30012018E8F538E528D518C50E4FBFA798038
:1006D300784512018E8F538E528D518C50120372B6
:1006E3008F418E408D3F8C3E120DF61206F7120B92
:0406F3004D020B8722
:10086600E48F5EF55DF55CF55BAE5DAD5CAC5B782B
:10087600181205828F5E8E5D8D5C8C5BE55E455938
:10088600F55EE55D4558F55DE55C4557F55CE55B70
:100896004556F55BC283E4F55AE4FFFEFD7C04A9E8
:1008A6005AA80112056E8F628E618D608C5FC285BB
:1008B600E55E5562FFE55D5561FEE55C5560FDE56B
:1008C6005B555FFCAB62AA61A960A85FC312055DB8
:1008D6007004D2A78002C2A7D285055AE55AB41B76
:0708E600B8C285C2A7D2834E
:0108ED0022E8
:1008EE00E48F5EF55DF55CF55BAE5DAD5CAC5B78A3
:1008FE00181205828F5E8E5D8D5C8C5BE55E4559B0
:10090E00F55EE55D4558F55DE55C4557F55CE55BE7
:10091E004556F55BC281E4F55AE4FFFEFD7C04A961
:10092E005AA80112056E8F628E618D608C5FC28532
:10093E00E55E5562FFE55D5561FEE55C5560FDE5E2
:10094E005B555FFCAB62AA61A960A85FC312055D2F
:10095E007004D2A78002C2A7D285055AE55AB41BED
:07096E00B8C285C2A7D281C7
:01097500225F
:100B4D00E4F554E55425E025E02424F81205958FAD
:100B5D00598E588D578C56AF54120866D2837F012B
:100B6D007E00120CE2C2837F017E00120CE2D28362
:090B7D000554E554C3940540CA77
:010B8600224C
:100B8700E4F554E55425E025E0240CF81205958F8B
:100B9700598E588D578C56AF541208EED2817F016B
:100BA7007E00120CE2C2817F017E00120CE2D2812C
:090BB7000554E554C3940540CA3D
:010BC0002212
:060E1600A286E433FF2276
:060E1C00A2A6E433FF2250
:1009E300120DA6120A3A120AD2120E08120DE212C0
:1009F3000DEC120BF87FC87E00120CE21206F71200
:100A03000DF6120B4D120B877FC87E00120CE212FB
:100A130007BEEF60FAE566245E600E1460122402DE
:100A230070EDAF68120C7B80E6AF68120E0F80DFAB
:070A3300AF68120D7680D8B8
:0609D000047A00002580FE
:0A0DE20053847F5384BF4384102222
:0B0DCC00E58430E0037F01227F00225D
:090DFF00E5851204205384FE2254
:0B0DD7008F85E58430E1FB5384FD2292
:100D9000E4FFEFC39D50030F80F88F82758300122C
:060DA00003F3FF020DD772
:0609D6000475016E3600FD
:100A3A005396BF5395BF43968053957F4394025371
:100A4A0093FD4394085393F74394205393DF5394AD
:100A5A00405393BF5392025391FD4392015391FE27
:100A6A004392085391F743BA0453CAFB53C9FB4351
:0C0A7A00CA0853C9F743CA1053C9EF2241
:100DA60043BA8090FE017401F090FE02E030E0F953
:040DB60053BA7F228B
:100AD200E47F04FEFDFCAB7DAA7CA97BA87A12040C
:100AE20032A804A905AA06AB07AF78AE77AD76ACFB
:100AF200751204BDC3E49FFFE49EFEEFF5D7EEF549
:0D0B0200D6438F04438E04538EF7438E10AC
:010B0F0022C3
:070E080043AF1043A8802254
:03009300020A86D8
:100A8600C0E0C0F0C083C082C0D075D000C000C036
:100A960001C002C003C004C005C006C007120DCCC9
:100AA600BF010E7B007A007979120DFFAF79120D26
:100AB600BAD007D006D005D004D003D002D001D0DA
:0C0AC60000D0D0D082D083D0F0D0E0323D
:0609DC000174000173002C
:100DBA00E573B40503E4F57374662573F8A60705AD
:020DCA00732292
:100B1000E573C39F5002AF73C3E5739FFEE4FDED21
:100B2000C39E5010EF2D2466F8E6FC74632DF8A6E2
:100B3000040D80EBE4FDEDC39E500F74632DF8E6C9
:0C0B4000FF74662DF8A6070D80EC8E7384
:010B4C002286
:1007BE00E573C3940350037F0022E56664A1702A9B
:1007CE00E5686007640A600302085EE573C394047B
:1007DE0050037F00227B007A0079667D03120CA005
:1007EE00EF6569600280697F0122E56664A2702D63
:1007FE00E56864016008E568640260028052E57392
:10080E00C3940550037F00227B007A0079667D0435
:10081E00120CA0EF656A600280367F0122E56664E5
:10082E00A3702DE56864016008E56864816002804C
:10083E001FE573C3940550037F00227B007A007975
:10084E00667D04120CA0EF656A600280037F0122B0
:08085E007F03120B107F002242
:100C5300E4F54EF54FC3E54F9574E54E94005014FB
:100C6300746B254FF8E6FF120DD7054FE54F70E57E
:070C7300054E80E1E4F57479
:010C7A002257
:100C2800756BA1756C05E4F56DF56E120D028F6F8D
:100C3800120D028F70120D208F717B007A00796B74
:0B0C48007D07120CA08F72757408224B
:100BC100756BA1756C02756D01120E1C8F6EE56D52
:100BD10025E0F56E120E16EF426EE56D25E0F56E1D
:100BE100120E16EF426E7B007A00796B7D04120CB7
:070BF100A08F6F757405224F
:100CC200756BA1756C02756D02E565C313F56E7BDC
:100CD200007A00796B7D04120CA08F6F7574052267
:100C7B00EF14600C14600E2402700D120C28800807
:100C8B00120BC18003120CC27F04120B10E57460AF
:050C9B0003120C5322BE
:070E0F008F4E7F05020B105E
:100D76008F4EE54EB401047F018007E54EB4810530
:0A0D86007FFF1205A17F05020B108C
:0A0DEC0043BC8043DE2053DEF022FA
:100D3E0053BCF0EF42BC43BC40E5BC20E0FBAFBD72
:0C0D4E00EF7F00FEADBEEF2DFFE43EFE87
:010D5A002276
:100D0200E4FF120D3E7F647E00120CE2E4FF120D3E
:0D0D12003EEEC4F854F0C8EFC4540F48FF83
:010D1F0022B1
:100D2000E4FF120D3E7F647E00120CE2E4FF120D20
:0D0D30003EEEC4F854F0C8EFC4540F48FF65
:010D3D002293
:100CE200E4FDFCC3ED9FEC9E5015E4FBFA0BBB0048
:0F0CF200010ABA04F8BB4CF50DBD00010C80E4FB
:010D010022CF
:060CA0008B4E8A4F8950C3
:100CA600E4FFFEEEC39D5013AB4EAA4FA9508E82B1
:0B0CB6007583001203F32FFF0E80E88F
:010CC1002210
:100BF80053F1BF43BA8090FFF0745DF0A374C0F066
:100C0800A3E0541FF090FF34E04480F0E04440F04B
:100C1800E054E7F0E04408F0E054F8F053BA7F22DB
:100D5B008F7E43BA8090FF30742EF0A374E0F0A323
:0B0D6B00745DF0A374C0F053BA7F2247
:100096000203DEE86480F8E933E83360110460F0B7
:1000A600ED33EC337009E8FCE9FDEAFEEBFF2204D0
:1000B60060DED3EB9FEA9EE99DE8C2E78CF0C2F7CB
:1000C60095F0400CE8CCF8E9CDF9EACEFAEBCFFB97
:1000D6001203A985D0F05804700320D5B3E8047044
:1000E600075002B2D50203E892D5EC0460F7E4CCDF
:1000F600C0E0C398F8603B94186008400DD0E0FB60
:100106000203C0E4FBFAC9FC8028E830E406E4C92F
:10011600FBE4CAFCE830E305E4C9CACBFCE85407B3
:100126006010F8C3E913F9EA13FAEB13FBEC13FCBE
:10013600D8F130F52FC3E49CFCEF9BFFEE9AFEED61
:1001460099FDD0E0FBEF4E4D4C701222DB0302030B
:10015600E5EC2CFCEF33FFEE33FEED33FDED30E73F
:10016600EB0203C0EF2BFFEE3AFEED39FDD0E0FBCC
:1001760050130BBB00030203E8ED13FDEE13FEEF75
:0801860013FFEC13FC0203C09F
:10018E00EC4D6011E8497017ED33EC3304600DE46B
:10019E00FCFFFEFD22E933E8330470F80203DE12A1
:1001AE0003A958046009E4CC2481500628500902A2
:1001BE0003E82840030203E5C0E0EB4A7044B9802F
:1001CE0006D0E0FB0203D4EF4E701CBD8008EBFF9F
:1001DE00EAFEE9FD80EBE98DF0A4FEE5F002027780
:1001EE00E9CDF9EAFEEBFFEF89F0A4FCE5F0CE894C
:1001FE00F0A42EFFE435F0CD89F0A42DFEE435F009
:10020E008067EF4E7005BD80D780C3EF8BF0A4AC36
:10021E00F0EE8BF0A42CFCE435F0F8EF8AF0A42C71
:10022E00E5F038FCE433CB8DF0A42CFCE5F03BF884
:10023E00EE8AF0A42CFCE5F038F8E433CF89F0A474
:10024E002CFCE5F038CF3400CE89F0A42FFFE5F07A
:10025E003EFEE433C98DF0A42EFEE5F039CD8AF0D2
:10026E00A42FFFE5F03EFEE43DFD33D0E0FB50074A
:10027E000BBB000F0203E8EC2CFCEF33FFEE33FE5A
:06028E00ED33FD0203C088
:100294000203E8EC5D046005E8590470030203DE20
:1002A4001203A9580460F6EC4860F2EC7004FDFEF9
:1002B400FF22C860DB2481C85009C398600250063D
:1002C4000203E59850CAF582E9294B4A7005AB82CE
:1002D4000203D475F0007C1A7880C3EF9BEE9AED8C
:1002E40099400DC3EF9BFFEE9AFEED99FDE842F0B5
:1002F400DC23ACF0D0E0FFD0E0FED0E0FDAB822008
:10030400E7101BEB60BAEC2CFCEF33FFEE33FEED91
:1003140033FD0203C0E803F830E705C0F075F000D0
:10032400EF2FFFEE33FEED33FD40B830E7C280AA75
:1003340075F020800E75F010800575F0087D007E44
:10034400007F003392D530D50312054FEC334010B3
:10035400EF33FFEE33FEED33FDEC33FCD5F0ED224D
:0E036400E5F0247EA2D513CC92E7CDCEFF2289
:10037200EDD2E7CD33EC3392D524814006E4FFFE83
:10038200FDFC22FCE4CFCECDCC24E0501174FF80E2
:10039200EDC3CC13CCCD13CDCE13CECF13CF04707F
:0703A200F030D5DE02054F2B
:1003A900E9D2E7C933E833F892D5EDD2E7CD33EC9A
:0703B90033FC5002B2D52213
:1003C000EC30E7100FBF000C0EBE00080DBD00049E
:1003D0000BEB6014A2D5EB13FCED92E7FD2274FF4A
:1003E000FCFDFEFF22E480F8A2D574FF13FC7D80A3
:0303F000E480EFB7
:03000000020003F8
:0C000300787FE4F6D8FD75817E02004A8B
:1003F300BB010CE58229F582E5833AF583E02250BF
:1004030006E92582F8E622BBFE06E92582F8E22208
:0D041300E58229F582E5833AF583E4932222
:10042000BB010689828A83F0225002F722BBFE01BB
:02043000F322B5
:10043200E88FF0A4CC8BF0A42CFCE98EF0A42CFC69
:100442008AF0EDA42CFCEA8EF0A4CDA8F08BF0A4E7
:100452002DCC3825F0FDE98FF0A42CCD35F0FCEB46
:100462008EF0A4FEA9F0EB8FF0A4CFC5F02ECD390B
:0F047200FEE43CFCEAA42DCE35F0FDE43CFC2278
:1004810075F008758200EF2FFFEE33FECD33CDCC32
:1004910033CCC58233C5829BED9AEC99E5829840B5
:1004A1000CF582EE9BFEED9AFDEC99FC0FD5F0D692
:1004B100E4CEFBE4CDFAE4CCF9A88222B800C1B9BC
:1004C1000059BA002DEC8BF084CFCECDFCE5F0CBFA
:1004D100F97818EF2FFFEE33FEED33FDEC33FCEB33
:1004E10033FB10D703994004EB99FB0FD8E5E4F9EE
:1004F100FA227818EF2FFFEE33FEED33FDEC33FCDB
:10050100C933C910D7059BE99A4007EC9BFCE99ACE
:10051100F90FD8E0E4C9FAE4CCFB2275F010EF2F13
:10052100FFEE33FEED33FDCC33CCC833C810D70713
:100531009BEC9AE899400AED9BFDEC9AFCE899F84E
:0E0541000FD5F0DAE4CDFBE4CCFAE4C8F922E1
:0E054F00C3E49FFFE49EFEE49DFDE49CFC22BD
:10055D00EB9FF5F0EA9E42F0E99D42F0E89C45F0F4
:01056D00226B
:10056E00E86010ECA2E713FCED13FDEE13FEEF13A3
:04057E00FFD8F02290
:10058200E8600FEFC333FFEE33FEED33FDEC33FCD7
:03059200D8F1227B
:0C059500E6FC08E6FD08E6FE08E6FF2292
:10000F000209E3E493A3F8E493A34003F68001F21B
:10001F0008DFF48029E493A3F85407240CC8C333F2
:10002F00C4540F4420C8834004F456800146F6DFC1
:10003F00E4800B0102040810204080900976E47ED2
:10004F00019360BCA3FF543F30E509541FFEE493B6
:10005F00A360010ECF54C025E060A840B8E493A37D
:10006F00FAE493A3F8E493A3C8C582C8CAC583CAA8
:10007F00F0A3C8C582C8CAC583CADFE9DEE780BE60
:0109E2000014
:00000001FF
