:100B35004400424586600042000201AE4100350492
:100B450044003A0000000058001C001F86FF00F614
:100B5500800A00E00000000001AE00000000000077
:100B6500000044003E4586099A42000001AC410060
:100B7500340444003600EB851E580004001F86FF30
:100B850000F6800A00E00000000001AE0000000051
:040B9500000000005C
:0D140600C280C285C2A7C2C3D281D2862295
:10079A00900020A3E0FDA3E0FEE4FFEE54C0FEE4D7
:1007AA00FC900020120595900020E0F8A3E0F9A340
:1007BA00E0FAA3E0FB900035E0FFEB4FFFEAFEE929
:1007CA00FDE8FC900020120595900028A3E0FDE4C6
:1007DA00FFFEE4FC900028120595900028E0F8A39B
:1007EA00E0F9A3E0FAA3E0FB900002E0FEA3E0FF39
:1007FA00EB4FFFEA4EFEE9FDE8FC90002812059552
:10080A00E4FFFEFDFC90002C12059590002CE0FC04
:10081A00A3E0FDA3E0FEA3E0FF90003AE0F8A3E026
:10082A00F9A3E0FAA3E0FBEF4BFFEE4AFEED49FD28
:10083A00EC48FC90002C120595900008A3E0FDA35B
:10084A00E0FEE4FFEE54C0FEE4FC900008120595B9
:10085A00900008E0F8A3E0F9A3E0FAA3E0FB900017
:10086A0034E0FFEB4FFFEAFEE9FDE8FC90000812D6
:10087A000595900010A3E0FDE4FFFEE4FC90001053
:10088A00120595900010E0F8A3E0F9A3E0FAA3E0BE
:10089A00FB900000E0FEA3E0FFEB4FFFEA4EFEE90B
:1008AA00FDE8FC900010120595E4FFFEFDFC9000A7
:1008BA0014120595900014E0FCA3E0FDA3E0FEA34A
:1008CA00E0FF900036E0F8A3E0F9A3E0FAA3E0FB2A
:1008DA00EF4BFFEE4AFEED49FDEC48FC9000140296
:0208EA00059572
:0505A10090005FEFF087
:1005A600900042E0F8A3E0F9A3E0FAA3E0FBC00064
:1005B600C001C002C00390005FE0FC12033ED003FE
:1005C600D002D001D00012009D900042120595E4A1
:1005D600FBFA79207841900042E0FCA3E0FDA3E01D
:1005E600FEA3E0FF1202979000601205959000604E
:1005F600E0FCA3E0FDA3E0FEA3E0FF12037290007F
:1006060002EEF0A3EFF0900060E0FCA3E0FDA3E0B3
:10061600FEA3E0FFC004C005C006C007900002E0CC
:10062600FCA3E0FDE4120339A804A905AA06AB075A
:10063600D007D006D005D0041200999000601205AC
:1006460095900060E0FCA3E0FDA3E0FEA3E0FFE4DC
:10065600FBFA7980784512018E900060120595901C
:100666000060E0FCA3E0FDA3E0FEA3E0FFE4FBFAEC
:100676007980784512018E90006012059590006091
:10068600E0FCA3E0FDA3E0FEA3E0FF1203729000EE
:100696003A12059590003EE0F8A3E0F9A3E0FAA32C
:1006A600E0FBC000C001C002C00390005FE0FC1286
:1006B600033ED003D002D001D00012009D90003E30
:1006C600120595E4FBFA7920784190003EE0FCA300
:1006D600E0FDA3E0FEA3E0FF120297900060120582
:1006E60095900060E0FCA3E0FDA3E0FEA3E0FF120E
:1006F6000372900000EEF0A3EFF0900060E0FCA320
:10070600E0FDA3E0FEA3E0FFC004C005C006C007ED
:10071600900000E0FCA3E0FDE4120339A804A9055B
:10072600AA06AB07D007D006D005D00412009990D0
:100736000060120595900060E0FCA3E0FDA3E0FEDA
:10074600A3E0FFE4FBFA7980784512018E90006001
:10075600120595900060E0FCA3E0FDA3E0FEA3E097
:10076600FFE4FBFA7980784512018E90006012054D
:1007760095900060E0FCA3E0FDA3E0FEA3E0FF127D
:10078600037290003612059512140612079A120E7D
:040796008A020EDAEB
:1008EC00E4FCFDFE90006B12059590006BE0FCA300
:1008FC00E0FDA3E0FEA3E0FF781812058290006BE8
:10090C0012059590006BE0FCA3E0FDA3E0FEA3E0D4
:10091C00FF900066E0F8A3E0F9A3E0FAA3E0FBEF98
:10092C004BFFEE4AFEED49FDEC48FC90006B1205C6
:10093C0095C286E490006AF090006AE0F9C3941BBB
:10094C00505BE4FFFEFD7C04A80112056E90006F65
:10095C00120595C28590006FE0FCA3E0FDA3E0FEBC
:10096C00A3E0FF90006BE0F8A3E0F9A3E0FAA3E0AA
:10097C005FFFEA5EFEE95DFDE85CFCA3E0F8A3E046
:10098C00F9A3E0FAA3E0FBC312055D7004D2C380A7
:10099C0002C2C3D28590006AE004F0809BC285C27B
:0309AC00C3D2862D
:0109AF002225
:1009B000E4FCFDFE90006B12059590006BE0FCA33B
:1009C000E0FDA3E0FEA3E0FF781812058290006B23
:1009D00012059590006BE0FCA3E0FDA3E0FEA3E010
:1009E000FF900066E0F8A3E0F9A3E0FAA3E0FBEFD4
:1009F0004BFFEE4AFEED49FDEC48FC90006B120502
:100A000095C281E490006AF090006AE0F9C3941BFB
:100A1000505BE4FFFEFD7C04A80112056E90006FA0
:100A2000120595C28090006FE0FCA3E0FDA3E0FEFC
:100A3000A3E0FF90006BE0F8A3E0F9A3E0FAA3E0E5
:100A40005FFFEA5EFEE95DFDE85CFCA3E0F8A3E081
:100A5000F9A3E0FAA3E0FBC312055D7004D2A780FE
:100A600002C2A7D28090006AE004F0809BC280C2DC
:030A7000A7D28189
:010A73002260
:100E8A00E4900064F0900064E0FFC00725E025E0EC
:100E9A00241CF582E43400F583E0FCA3E0FDA3E022
:100EAA00FEA3E0FF900066120595D0071208ECD267
:100EBA00867F017E001212F8C2867F017E0012121E
:0F0ECA00F8D286900064E004F0E0C3940540B6CF
:010ED90022F6
:100EDA00E4900064F0900064E0FFC00725E025E09C
:100EEA002404F582E43400F583E0FCA3E0FDA3E0EA
:100EFA00FEA3E0FF900066120595D0071209B0D252
:100F0A00817F017E001212F8C2817F017E001212D7
:0F0F1A00F8D281900064E004F0E0C3940540B683
:010F290022A5
:06145600A282E433FF2234
:06145C00A2A6E433FF220A
:100D10001213E2120CA6120F7912144F1214291298
:100D200014331211C51213F67FC87E001212F81286
:100D3000079A121406120E8A120EDA7FC87E00126B
:100D400012F8120A74EF60FA90004CE0245E601111
:100D5000146018240270EB90004EE0FF120C3480F7
:100D6000E190004EE0FF12107E80D790004EE0FF31
:050D700012112580CDE9
:070B990044007800002580F4
:0A14290053847F5384BF43841022D4
:0B141300E58430E0037F01227F00220F
:09143D00E5851204205384FE220F
:0B141E008F85E58430E1FB5384FD2244
:1013CC00E4FFEFC39D50030F80F88F8275830012EA
:0613DC0003F3FF02141EE2
:070BA000440073016E3600F2
:100CA6005396BF5395BF4394025393FD4394015308
:100CB60093FE43968053957F43B40853B3F743940A
:100CC600405393BF4394205393DF5394FB5393FBBA
:100CD6005392FD5391FD43948053937F43B2205327
:100CE600B1DF43B24043B14043CA0153C9FE43CAD0
:100CF6000253C9FD43BA0453CAFB53C9FB43CA088E
:0A0D060053C9F743CA1053C9EF2286
:1013E20043BA8090FE017401F090FE02E030E0F911
:0413F20053BA7F2249
:100F7900E47F04FEFDFC900078E0F8A3E0F9A3E02B
:100F8900FAA3E0FB120432A804A905AA06AB07904C
:100F99000073E0FCA3E0FDA3E0FEA3E0FF1204BDA3
:100FA900C3E49FFFE49EFEEFF5D7EEF5D6438E042A
:060FB900538EF7438E1079
:010FBF00220F
:07144F0043AF1043A8802207
:03009300020F2A2F
:100F2A00C0E0C0F0C083C082C0D075D000C000C08D
:100F3A0001C002C003C004C005C006C007121413D2
:100F4A00BF01117B017A00797712143D900077E096
:100F5A00FF121318D007D006D005D004D003D00250
:0F0F6A00D001D000D0D0D082D083D0F0D0E032F0
:100BA70041004B004100510041005C0041005B00E7
:1013F6007830761B786F76EAE47808F6F6D287229C
:1013180090005BE0B40502E4F090005BE0244CF53B
:0F13280082E43400F583EFF090005BE004F022E4
:100DD60090005BE0FEC39F5002AF06C3EE9FFEE4A9
:100DE600FDEDC39E501CEF2D244CF582E43400F536
:100DF60083E0FC74462DF582E43400F583ECF00DB7
:100E060080DFE4FDEDC39E501B74462DF582E4346D
:100E160000F583E0FF744C2DF582E43400F583EF92
:090E2600F00D80E090005BEEF09D
:010E2F0022A0
:100A740090005BE0FBC3940350037F002290004C82
:100A8400E064A1702E90004EE0FF6007640A6003EA
:100A9400020B2DEBC3940450037F00227B017A00E8
:100AA400794C7D0312127C90004FE06F60028079D4
:100AB4007F012290004CE064A2703390004EE0FF6E
:100AC40064016007EF64026002805E90005BE0C333
:100AD400940550037F00227B017A00794C7D041237
:100AE400127C900050E06F6002803E7F01229000F3
:100AF4004CE064A3703390004EE0FF64016007EFA4
:100B040064816002802390005BE0C3940550037FFE
:100B140000227B017A00794C7D0412127C900050F3
:100B2400E06F600280037F01227F03120DD67F00F5
:010B3400229E
:10100200E490005DF0A3F090005CE0FF90005DE0F2
:10101200FCA3E0FDC39FEC9400501F74522DF58297
:10102200E43400F583E0FF12141E90005EE004F049
:0F10320070D590005DE004F080CDE490005CF09C
:01104100228C
:0510420090005FEFF0DB
:10104700E4A3F0A3F090005FE0FFA3E0FCA3E0FDC2
:10105700C39FEC9400501F744C2DF582E43400F5C7
:1010670083E0FF12141E900061E004F070D7900037
:0610770060E004F080CFF0
:01107D002250
:100D750012135690005274A1F0A37405F0E4A3F089
:100D850074082FF8E6A3F0121456900056BF01051B
:100D95007405F080037404F0121456900057BF01D7
:100DA500057405F080037404F012145C900058BFBC
:100DB50001057405F080037404F07B017A00795213
:100DC5007D0712127C900059EFF090005C7408F0DA
:010DD50022FB
:100E300090005274A1F0A37402F0A314F012145C99
:100E4000900055EFF0900054E0FF25E0A3F0E0FEA5
:100E5000C006121456D0E04F900055F0900054E0B8
:100E6000FF25E0A3F0E0FEC006121456D0E04F903C
:100E70000055F07B017A0079527D0412127C9000BB
:0A0E800056EFF090005C7405F022BC
:1011F50012135690005274A1F0A37402F0A3F07478
:10120500082FF8E6A3F07B017A0079527D041212CB
:0C1215007C900056EFF090005C7405F037
:0112210022AA
:10115B0090005274A1F0A37402F0A304F012145681
:10116B00900055BF01057405F080037404F07B01FA
:10117B007A0079527D0412127C900056EFF09000A9
:05118B005C7405F02278
:1010B90090005274A1F0A37402F0A37404F0121406
:1010C90056900055BF01057405F080037404F07B48
:1010D900017A0079527D0412127C900056EFF0904B
:0610E900005C7405F0221A
:1010EF0090005274A1F0A37402F0A37405F01214CF
:1010FF005C900055BF01057405F080037404F07B0C
:10110F00017A0079527D0412127C900056EFF09014
:06111F00005C7405F022E3
:100BB80090005274A1F0A37406F0A3F012145C9094
:100BC8000055EFF0900054E0FF25E0A3F0E0FEC0F0
:100BD80006121456D0E04F900055F0900054E0FFF4
:100BE80025E0A3F0E0FEC006121456D0E04F9000B6
:100BF80055F090004BE0FFC313900056F0121356C7
:100C0800900057EFF0121356900058EFF01213743B
:100C1800900059EFF07B017A0079527D0812127C1E
:0C0C280090005AEFF090005C7409F0227C
:1012220090005274A1F0A37402F0A37407F090002E
:1012320051E0900055F07B017A0079527D04121240
:0D1242007C900056EFF090005C7405F022E7
:10124F0090005274A1F0A37402F0A37408F0900000
:10125F004BE0900055F07B017A0079527D04121219
:0D126F007C900056EFF090005C7405F022BA
:1012A80090005274A1F0A37402F0A37409F0A3741F
:1012B80001F0FB7A0079527D0412127C900056EFFF
:0812C800F090005C7405F022B7
:1012D00090005274A1F0A37402F0A3740AF0A374F6
:1012E00001F0FB7A0079527D0412127C900056EFD7
:0812F000F090005C7405F0228F
:100C3400EFB40B00505D900C41F8282873020C624D
:100C4400020C67020C6C020C71020C76020C7B0223
:100C54000C80020C85020C8A020C8F020C94120D7B
:100C6400758030120E30802B1211F5802612115B24
:100C740080211210B9801C1210EF8017120BB8805B
:100C840012121222800D12124F80081212A8800331
:100C94001212D07F04120DD690005CE06003121093
:020CA40002222A
:10107E00EFB4011990004FE0900051F07004C28758
:10108E00801F900051E0B40118D2878014EFB40293
:10109E001090004FE090004BF02430F8E6FF121154
:0B10AE00907F051210427F05020DD656
:0511250090005DEFF0F9
:10112A00BF010C90004FE0547FFF90005E80149046
:10113A00005DE0B4811690004FE0547F90005EF0AD
:10114A00F404FFF01205A17F051210427F05020D7B
:01115A00D6BE
:0A14330043BC8043DE2053DEF022AC
:1013920053BCF0EF42BC43BC40E5BC30E5FBAFBD03
:0C13A200EF7F00FEADBEEF2DFFE43EFE2D
:0113AE00221C
:101356007F011213927F647E001212F87F0112132E
:0D13660092EEC4F854F0C8EFC4540F48FFD5
:011373002257
:101374007F011213927F647E001212F87F01121310
:0D13840092EEC4F854F0C8EFC4540F48FFB7
:011391002239
:1012F800E4FDFCC3ED9FEC9E5015E4FBFA0BBB002C
:0F130800010ABA04F8BB4CF50DBD00010C80E4DE
:0113170022B3
:0B127C0090005DEBF0A3EAF0A3E9F0A6
:10128700E4FFFEEEC39D501890005DE0FBA3E0FA7B
:10129700A3E0F98E827583001203F32FFF0E80E31C
:0112A7002224
:1011C50053F13F43BA8090FFF0745DF0A374C0F013
:1011D500A3E054E0F090FF34E04480F0E04440F0B8
:1011E500E054E7F0E04408F0E054F8F053BA7F2209
:060FC00090007C12059573
:100FC600E4FFFE7D707C4390007CE0F8A3E0F9A38B
:100FD600E0FAA3E0FB12018E120372AD07AC0653D2
:100FE600FE7F43BA80EC90FF30F0A3EDF0A3745D72
:0B0FF600F0A374C0F053BA7F43FE80EC
:0110010022CC
:09144600C2C8C2C9D2B5D2B62257
:1011900090005DEFF0C2B6C2B5121337C2B520B6EB
:1011A000FDD2B5E4FF1213AFC2B530B604D2B5809C
:1011B000F990005DE0FF1213AFC2B520B6FDD2B5C5
:0511C000D2B5D2B622F9
:101337007F50E4FEC2B5EF5480C413131354012445
:0E134700FF92B6D2B5EF25E0FF0EEEB408E639
:011355002275
:1013AF00E4FEC2B5EF5480C4131313540124FF920B
:0C13BF00B6D2B5EF25E0FF0EEEB408E654
:0113CB0022FF
:100096000203DEE86480F8E933E83360110460F0B7
:1000A600ED33EC337009E8FCE9FDEAFEEBFF2204D0
:1000B60060DED3EB9FEA9EE99DE8C2E78CF0C2F7CB
:1000C60095F0400CE8CCF8E9CDF9EACEFAEBCFFB97
:1000D6001203A985D0F05804700320D5B3E8047044
:1000E600075002B2D50203E892D5EC0460F7E4CCDF
:1000F600C0E0C398F8603B94186008400DD0E0FB60
:100106000203C0E4FBFAC9FC8028E830E406E4C92F
:10011600FBE4CAFCE830E305E4C9CACBFCE85407B3
:100126006010F8C3E913F9EA13FAEB13FBEC13FCBE
:10013600D8F130F52FC3E49CFCEF9BFFEE9AFEED61
:1001460099FDD0E0FBEF4E4D4C701222DB0302030B
:10015600E5EC2CFCEF33FFEE33FEED33FDED30E73F
:10016600EB0203C0EF2BFFEE3AFEED39FDD0E0FBCC
:1001760050130BBB00030203E8ED13FDEE13FEEF75
:0801860013FFEC13FC0203C09F
:10018E00EC4D6011E8497017ED33EC3304600DE46B
:10019E00FCFFFEFD22E933E8330470F80203DE12A1
:1001AE0003A958046009E4CC2481500628500902A2
:1001BE0003E82840030203E5C0E0EB4A7044B9802F
:1001CE0006D0E0FB0203D4EF4E701CBD8008EBFF9F
:1001DE00EAFEE9FD80EBE98DF0A4FEE5F002027780
:1001EE00E9CDF9EAFEEBFFEF89F0A4FCE5F0CE894C
:1001FE00F0A42EFFE435F0CD89F0A42DFEE435F009
:10020E008067EF4E7005BD80D780C3EF8BF0A4AC36
:10021E00F0EE8BF0A42CFCE435F0F8EF8AF0A42C71
:10022E00E5F038FCE433CB8DF0A42CFCE5F03BF884
:10023E00EE8AF0A42CFCE5F038F8E433CF89F0A474
:10024E002CFCE5F038CF3400CE89F0A42FFFE5F07A
:10025E003EFEE433C98DF0A42EFEE5F039CD8AF0D2
:10026E00A42FFFE5F03EFEE43DFD33D0E0FB50074A
:10027E000BBB000F0203E8EC2CFCEF33FFEE33FE5A
:06028E00ED33FD0203C088
:100294000203E8EC5D046005E8590470030203DE20
:1002A4001203A9580460F6EC4860F2EC7004FDFEF9
:1002B400FF22C860DB2481C85009C398600250063D
:1002C4000203E59850CAF582E9294B4A7005AB82CE
:1002D4000203D475F0007C1A7880C3EF9BEE9AED8C
:1002E40099400DC3EF9BFFEE9AFEED99FDE842F0B5
:1002F400DC23ACF0D0E0FFD0E0FED0E0FDAB822008
:10030400E7101BEB60BAEC2CFCEF33FFEE33FEED91
:1003140033FD0203C0E803F830E705C0F075F000D0
:10032400EF2FFFEE33FEED33FD40B830E7C280AA75
:1003340075F020800E75F010800575F0087D007E44
:10034400007F003392D530D50312054FEC334010B3
:10035400EF33FFEE33FEED33FDEC33FCD5F0ED224D
:0E036400E5F0247EA2D513CC92E7CDCEFF2289
:10037200EDD2E7CD33EC3392D524814006E4FFFE83
:10038200FDFC22FCE4CFCECDCC24E0501174FF80E2
:10039200EDC3CC13CCCD13CDCE13CECF13CF04707F
:0703A200F030D5DE02054F2B
:1003A900E9D2E7C933E833F892D5EDD2E7CD33EC9A
:0703B90033FC5002B2D52213
:1003C000EC30E7100FBF000C0EBE00080DBD00049E
:1003D0000BEB6014A2D5EB13FCED92E7FD2274FF4A
:1003E000FCFDFEFF22E480F8A2D574FF13FC7D80A3
:0303F000E480EFB7
:03000000020003F8
:0C000300787FE4F6D8FD75816F02004A9A
:1003F300BB010CE58229F582E5833AF583E02250BF
:1004030006E92582F8E622BBFE06E92582F8E22208
:0D041300E58229F582E5833AF583E4932222
:10042000BB010689828A83F0225002F722BBFE01BB
:02043000F322B5
:10043200E88FF0A4CC8BF0A42CFCE98EF0A42CFC69
:100442008AF0EDA42CFCEA8EF0A4CDA8F08BF0A4E7
:100452002DCC3825F0FDE98FF0A42CCD35F0FCEB46
:100462008EF0A4FEA9F0EB8FF0A4CFC5F02ECD390B
:0F047200FEE43CFCEAA42DCE35F0FDE43CFC2278
:1004810075F008758200EF2FFFEE33FECD33CDCC32
:1004910033CCC58233C5829BED9AEC99E5829840B5
:1004A1000CF582EE9BFEED9AFDEC99FC0FD5F0D692
:1004B100E4CEFBE4CDFAE4CCF9A88222B800C1B9BC
:1004C1000059BA002DEC8BF084CFCECDFCE5F0CBFA
:1004D100F97818EF2FFFEE33FEED33FDEC33FCEB33
:1004E10033FB10D703994004EB99FB0FD8E5E4F9EE
:1004F100FA227818EF2FFFEE33FEED33FDEC33FCDB
:10050100C933C910D7059BE99A4007EC9BFCE99ACE
:10051100F90FD8E0E4C9FAE4CCFB2275F010EF2F13
:10052100FFEE33FEED33FDCC33CCC833C810D70713
:100531009BEC9AE899400AED9BFDEC9AFCE899F84E
:0E0541000FD5F0DAE4CDFBE4CCFAE4C8F922E1
:0E054F00C3E49FFFE49EFEE49DFDE49CFC22BD
:10055D00EB9FF5F0EA9E42F0E99D42F0E89C45F0F4
:01056D00226B
:10056E00E86010ECA2E713FCED13FDEE13FEEF13A3
:04057E00FFD8F02290
:10058200E8600FEFC333FFEE33FEED33FDEC33FCD7
:03059200D8F1227B
:0C059500ECF0A3EDF0A3EEF0A3EFF022D9
:10000F00020D10E493A3F8E493A34003F68001F2EA
:10001F0008DFF48029E493A3F85407240CC8C333F2
:10002F00C4540F4420C8834004F456800146F6DFC1
:10003F00E4800B0102040810204080900B35E47E11
:10004F00019360BCA3FF543F30E509541FFEE493B6
:10005F00A360010ECF54C025E060A840B8E493A37D
:10006F00FAE493A3F8E493A3C8C582C8CAC583CAA8
:10007F00F0A3C8C582C8CAC583CADFE9DEE780BE60
:010BB700003D
:00000001FF
