:100B7800020C00AC02260004040800000000180E55
:100B8800001F867F00F6800A00FC0001000001AE0D
:080B9800000000000000000055
:10094C00C285C284D286E4F515E51454C0F514E5CD
:10095C0013F513E4F512E5154527F515E5144526B1
:10096C00F514E513F513E512F512E4F51DF51CE588
:10097C001BF51BE4F51AE51D450DF51DE51C450C95
:10098C00F51CE51BF51BE51AF51AE4F521F520E538
:10099C001F54F0F51FE4F51EE521450BF521E5206C
:1009AC00450AF520E51F4509F51FE51E4508F51E0E
:0109BC002218
:10084400E48F4FF54EF54DF54CAE4EAD4DAC4C78B6
:10085400181205B68F4F8E4E8D4D8C4CE54F454A80
:10086400F54FE54E4549F54EE54D4548F54DE54C0A
:100874004547F54CC286E4F54BE4FFFEFD7C04A934
:100884004BA8011205A28F538E528D518C50C285F4
:10089400E54F5553FFE54E5552FEE54D5551FDE5E7
:1008A4004C5550FCAB53AA52A951A850C312059100
:1008B4007004D2848002C284D285054BE54BB41BFC
:0708C400B8C285C284D28690
:0108CB00220A
:100BB300E4F545E54525E025E0240EF81205C98F47
:100BC3004A8E498D488C47AF45120844D2867F012F
:100BD3007E00120C9BC2867F017E00120C9BD28684
:090BE3000545E545C3940540CA2F
:010BEC0022E6
:060D3500A283E433FF225B
:1008CC007469120420900001746E120432900002BC
:1008DC007469120432900003747412043290000490
:1008EC0074201204329000057470120432900006C9
:1008FC007472120432900007746F12043290000864
:10090C007463120432900009746512043290000A68
:10091C00747312043290000B747312043290000C36
:10092C00742E12043290000D742E12043290000EAC
:10093C00742E12043290000F740A1204327F1022AB
:06079E007B007A007929BE
:1007A40074771204209000017461120432900002E4
:1007B40074691204329000037474120432900004B9
:1007C40074201204329000057466120432900006FC
:1007D400746F12043290000774721204329000088D
:1007E4007420120432900009744612043290000AF4
:1007F400745312043290000B742012043290000CD3
:10080400746C12043290000D746F12043290000E56
:10081400746312043290000F746B1204329000104F
:10082400742E120432900011742E120432900012AD
:10083400742E120432900013740A1204327F1422AC
:0609BD007B007A0079299D
:1009C3007446120420900001745312043290000202
:1009D3007420120432900003746C120432900004E9
:1009E300746F12043290000574631204329000068F
:1009F300746B12043290000774651204329000087D
:100A03007464120432900009742E12043290000AA6
:100A1300742E12043290000B742E12043290000CC8
:080A2300740A1204327F0D2257
:100A2B007446120420900001745312043290000299
:100A3B007420120432900003747512043290000477
:100A4B00746E120432900005746C1204329000061E
:100A5B00746F120432900007746312043290000812
:100A6B00746B120432900009742E12043290000A37
:100A7B00742E12043290000B742E12043290000C60
:080A8B00740A1204327F0D22EF
:0E05D5008B498A4A894B8F4F8E4E8D4D8C4C30
:1005E3001203728F50E5502430AB49AA4AA94B122B
:1005F3000420AB49AA4AA94B900001742E1204327D
:10060300E4FFFE7D207C41AB4FAA4EA94DA84C12BE
:10061300018EC004C005C006C007AF507E007C0039
:100623007D0A120454AC06AD07E4120339A804A9E9
:1006330005AA06AB07D007D006D005D0041200994F
:100643001203728F51E5512430AB49AA4AA94B904A
:100653000002120432E4FFFE7DC87C42AB4FAA4E77
:10066300A94DA84C12018EC004C005C006C007AF37
:10067300507E007C007D64120454AC06AD07E41286
:100683000339A804A905AA06AB07D007D006D005ED
:10069300D004120099C004C005C006C007AF517E44
:1006A300007C007D0A120454AC06AD07E412033942
:1006B300A804A905AA06AB07D007D006D005D00425
:1006C3001200991203728F51E5512430AB49AA4AA3
:1006D300A94B900003120432900004740A120432EE
:0206E3007F0591
:0106E50022F2
:100A9300E4FF120CBB7F647E00120C9BE4FF120C7C
:100AA300BBAD07AC06E41203398F488E478D468CE5
:100AB30045E4FBFA798078451202978F488E478D7B
:100AC300468C45E4FBFA7940784012018E8F488EBC
:100AD300478D468C457B007A0079291205D58F28EE
:0B0AE3007B007A007929AD28020CD8B6
:100C5100120D35EF64017B007A0079296007120AD1
:100C61002B8F2880051209C38F287B007A007929F0
:050C7100AD28020CD8C3
:1006E600E4F543F544120BED120C23120B3A120DEE
:1006F6002E120D11120D1B7B007A0079291208CCDF
:100706008F28AD28120CD87FF47E01120C9B12099B
:100716004C120BB312079E8F28AD28120CD87FE817
:100726007E03120C9B120D35BF010A1209BD8F28DC
:10073600AD28120CD8120D35EF6401601C12094C5D
:10074600120BB312079E8F28AD28120CD87FE87EB5
:1007560003120C9B7543018012E543B4010D120987
:10076600BD8F28AD28120CD8E4F543120D41EF6079
:10077600C47B007A007942120CEEE54214600C1438
:10078600600E240270AF120A9380AA120C5180A543
:08079600120A93120C51809D20
:060BA00004660000258040
:0A0D110053847F5384BF43841022F3
:0B0CFB00E58430E0037F01227F00222F
:090D2500E5851204205384FE222E
:0B0D06008F85E58430E1FB5384FD2263
:100CD800E4FFEFC39D50030F80F88F8275830012E5
:060CE80003F3FF020D06FC
:060BA600046100F42400CC
:100C23005394F75393F743947053938F439208531A
:100C330091F75392FE5391FE43BA0453CAFB53C92F
:0E0C4300FB43CA0853C9F743CA1053C9EF2236
:100BED0043BA8090FE02E030E0F943BA8090FE01F6
:100BFD007401F090FE0374C0F090FE03E030E0F954
:100C0D0090FE007411F07F647E00120C9B90FE022A
:060C1D00E4F053BA7F224F
:100B3A00E47F04FEFDFCAB69AA68A967A8661204F3
:100B4A0066A804A905AA06AB07AF64AE63AD62AC9A
:100B5A00611204F1C3E49FFFE49EFEEFF5D7EEF5C0
:0D0B6A00D6438F04438E04538EF7438E1044
:010B7700225B
:070D2E0043AF1043A880222F
:03009300020AEE70
:100AEE00C0E0C0F0C083C082C0D075D000C000C0CE
:100AFE0001C002C003C004C005C006C007120CFB33
:100B0E00BF010E7B007A007965120D25AF65120DBF
:100B1E003BD007D006D005D004D003D002D001D0F0
:0C0B2E0000D0D0D082D083D0F0D0E032D4
:060BAC00015F0001600082
:060D3B008F54755F0122D8
:030D4100AF5F227F
:0D0CEE00E55F6008E554120420E4F55F2284
:04008F00E4F55F2213
:100C7600E4F56AF56BC3E56B9560E56A940050147C
:100C86007455256BF8E6FF120D06056BE56B70E5EE
:040C9600056A80E18A
:010C9A002237
:0A0D1B0043BC8043DE2053DEF022CB
:100CBB0053BCF0EF42BC43BC40E5BC20E0FBAFBDF6
:0C0CCB00EF7F00FEADBEEF2DFFE43EFE0B
:010CD70022FA
:100C9B00E4FDFCC3ED9FEC9E5015E4FBFA0BBB008F
:0F0CAB00010ABA04F8BB4CF50DBD00010C80E442
:010CBA002217
:100096000203DEE86480F8E933E83360110460F0B7
:1000A600ED33EC337009E8FCE9FDEAFEEBFF2204D0
:1000B60060DED3EB9FEA9EE99DE8C2E78CF0C2F7CB
:1000C60095F0400CE8CCF8E9CDF9EACEFAEBCFFB97
:1000D6001203A985D0F05804700320D5B3E8047044
:1000E600075002B2D50203E892D5EC0460F7E4CCDF
:1000F600C0E0C398F8603B94186008400DD0E0FB60
:100106000203C0E4FBFAC9FC8028E830E406E4C92F
:10011600FBE4CAFCE830E305E4C9CACBFCE85407B3
:100126006010F8C3E913F9EA13FAEB13FBEC13FCBE
:10013600D8F130F52FC3E49CFCEF9BFFEE9AFEED61
:1001460099FDD0E0FBEF4E4D4C701222DB0302030B
:10015600E5EC2CFCEF33FFEE33FEED33FDED30E73F
:10016600EB0203C0EF2BFFEE3AFEED39FDD0E0FBCC
:1001760050130BBB00030203E8ED13FDEE13FEEF75
:0801860013FFEC13FC0203C09F
:10018E00EC4D6011E8497017ED33EC3304600DE46B
:10019E00FCFFFEFD22E933E8330470F80203DE12A1
:1001AE0003A958046009E4CC2481500628500902A2
:1001BE0003E82840030203E5C0E0EB4A7044B9802F
:1001CE0006D0E0FB0203D4EF4E701CBD8008EBFF9F
:1001DE00EAFEE9FD80EBE98DF0A4FEE5F002027780
:1001EE00E9CDF9EAFEEBFFEF89F0A4FCE5F0CE894C
:1001FE00F0A42EFFE435F0CD89F0A42DFEE435F009
:10020E008067EF4E7005BD80D780C3EF8BF0A4AC36
:10021E00F0EE8BF0A42CFCE435F0F8EF8AF0A42C71
:10022E00E5F038FCE433CB8DF0A42CFCE5F03BF884
:10023E00EE8AF0A42CFCE5F038F8E433CF89F0A474
:10024E002CFCE5F038CF3400CE89F0A42FFFE5F07A
:10025E003EFEE433C98DF0A42EFEE5F039CD8AF0D2
:10026E00A42FFFE5F03EFEE43DFD33D0E0FB50074A
:10027E000BBB000F0203E8EC2CFCEF33FFEE33FE5A
:06028E00ED33FD0203C088
:100294000203E8EC5D046005E8590470030203DE20
:1002A4001203A9580460F6EC4860F2EC7004FDFEF9
:1002B400FF22C860DB2481C85009C398600250063D
:1002C4000203E59850CAF582E9294B4A7005AB82CE
:1002D4000203D475F0007C1A7880C3EF9BEE9AED8C
:1002E40099400DC3EF9BFFEE9AFEED99FDE842F0B5
:1002F400DC23ACF0D0E0FFD0E0FED0E0FDAB822008
:10030400E7101BEB60BAEC2CFCEF33FFEE33FEED91
:1003140033FD0203C0E803F830E705C0F075F000D0
:10032400EF2FFFEE33FEED33FD40B830E7C280AA75
:1003340075F020800E75F010800575F0087D007E44
:10034400007F003392D530D503120583EC3340107F
:10035400EF33FFEE33FEED33FDEC33FCD5F0ED224D
:0E036400E5F0247EA2D513CC92E7CDCEFF2289
:10037200EDD2E7CD33EC3392D524814006E4FFFE83
:10038200FDFC22FCE4CFCECDCC24E0501174FF80E2
:10039200EDC3CC13CCCD13CDCE13CECF13CF04707F
:0703A200F030D5DE020583F7
:1003A900E9D2E7C933E833F892D5EDD2E7CD33EC9A
:0703B90033FC5002B2D52213
:1003C000EC30E7100FBF000C0EBE00080DBD00049E
:1003D0000BEB6014A2D5EB13FCED92E7FD2274FF4A
:1003E000FCFDFEFF22E480F8A2D574FF13FC7D80A3
:0303F000E480EFB7
:03000000020003F8
:0C000300787FE4F6D8FD75816B02004A9E
:1003F300BB010CE58229F582E5833AF583E02250BF
:1004030006E92582F8E622BBFE06E92582F8E22208
:0D041300E58229F582E5833AF583E4932222
:10042000BB010689828A83F0225002F722BBFE01BB
:02043000F322B5
:10043200F8BB010DE58229F582E5833AF583E8F000
:10044200225006E92582C8F622BBFE05E92582C8AC
:02045200F22294
:10045400EF8DF0A4A8F0CF8CF0A428CE8DF0A42EBC
:02046400FE2276
:10046600E88FF0A4CC8BF0A42CFCE98EF0A42CFC35
:100476008AF0EDA42CFCEA8EF0A4CDA8F08BF0A4B3
:100486002DCC3825F0FDE98FF0A42CCD35F0FCEB12
:100496008EF0A4FEA9F0EB8FF0A4CFC5F02ECD39D7
:0F04A600FEE43CFCEAA42DCE35F0FDE43CFC2244
:1004B50075F008758200EF2FFFEE33FECD33CDCCFE
:1004C50033CCC58233C5829BED9AEC99E582984081
:1004D5000CF582EE9BFEED9AFDEC99FC0FD5F0D65E
:1004E500E4CEFBE4CDFAE4CCF9A88222B800C1B988
:1004F5000059BA002DEC8BF084CFCECDFCE5F0CBC6
:10050500F97818EF2FFFEE33FEED33FDEC33FCEBFE
:1005150033FB10D703994004EB99FB0FD8E5E4F9B9
:10052500FA227818EF2FFFEE33FEED33FDEC33FCA6
:10053500C933C910D7059BE99A4007EC9BFCE99A9A
:10054500F90FD8E0E4C9FAE4CCFB2275F010EF2FDF
:10055500FFEE33FEED33FDCC33CCC833C810D707DF
:100565009BEC9AE899400AED9BFDEC9AFCE899F81A
:0E0575000FD5F0DAE4CDFBE4CCFAE4C8F922AD
:0E058300C3E49FFFE49EFEE49DFDE49CFC2289
:10059100EB9FF5F0EA9E42F0E99D42F0E89C45F0C0
:0105A1002237
:1005A200E86010ECA2E713FCED13FDEE13FEEF136F
:0405B200FFD8F0225C
:1005B600E8600FEFC333FFEE33FEED33FDEC33FCA3
:0305C600D8F12247
:0C05C900E6FC08E6FD08E6FE08E6FF225E
:10000F000206E6E493A3F8E493A34003F68001F21B
:10001F0008DFF48029E493A3F85407240CC8C333F2
:10002F00C4540F4420C8834004F456800146F6DFC1
:10003F00E4800B0102040810204080900B78E47ECE
:10004F00019360BCA3FF543F30E509541FFEE493B6
:10005F00A360010ECF54C025E060A840B8E493A37D
:10006F00FAE493A3F8E493A3C8C582C8CAC583CAA8
:10007F00F0A3C8C582C8CAC583CADFE9DEE780BE60
:010BB2000042
:00000001FF
