:10040C0042006800AC42008200044400000000007E
:10041C000058006A001F867F00F6800A00FC00016D
:10042C00000001AE00000000000000006064000449
:10043C0000600066006D0072007A00830096009EDA
:10044C0000AE00BA00C300CE00D400ED00F800FFEF
:10045C00010501220142016B019F01D501E8022532
:10046C00024D028A02C6030A0352039403DC0435CC
:10047C00049504EB054505B0061E067406E80763F3
:10048C0007D0086508F0097409F90A7F0AF70B70A0
:04049C000BBB0C503A
:10034F00C285C284D28690006EA3E0FDA3E0FEE4D6
:10035F00FFEE54C0FEE4FC90006E12027F90006E20
:10036F00E0F8A3E0F9A3E0FAA3E0FB900082E0FE3F
:10037F00A3E0FFEB4FFFEA4EFEE9FDE8FC90006EB5
:10038F0012027F900076A3E0FDE4FFFEE4FC9000F4
:10039F007612027F900076E0F8A3E0F9A3E0FAA3CB
:1003AF00E0FB900068E0FEA3E0FFEB4FFFEA4EFE9C
:1003BF00E9FDE8FC90007612027F90007AA3E0FD41
:1003CF00E4FFFEED54F0FDE4FC90007A12027F9002
:1003DF00007AE0FCA3E0FDA3E0FEA3E0FF900000A5
:1003EF00E0F8A3E0F9A3E0FAA3E0FBEF4BFFEE4A3E
:0D03FF00FEED49FDEC48FC90007A02027F03
:10028B00E4FCFDFE90008C12027F90008CE0FCA33E
:10029B00E0FDA3E0FEA3E0FF781812026C90008C47
:1002AB0012027F90008CE0FCA3E0FDA3E0FEA3E034
:1002BB00FF900087E0F8A3E0F9A3E0FAA3E0FBEFDF
:1002CB004BFFEE4AFEED49FDEC48FC90008C120210
:1002DB007FC286E490008BF090008BE0F9C3941BF7
:1002EB00505BE4FFFEFD7C04A801120258900090C5
:1002FB0012027FC285900090E0FCA3E0FDA3E0FE1C
:10030B00A3E0FF90008CE0F8A3E0F9A3E0FAA3E0F0
:10031B005FFFEA5EFEE95DFDE85CFCA3E0F8A3E0AD
:10032B00F9A3E0FAA3E0FBC31202477004D2848066
:10033B0002C284D28590008BE004F0809BC285C200
:03034B0084D286D3
:01034E00228C
:10056B00E4900085F0900085E0FFC00725E025E0D2
:10057B00246AF582E43400F583E0FCA3E0FDA3E0FC
:10058B00FEA3E0FF90008712027FD00712028BD2EE
:10059B00867F017E0012075BC2867F017E001207F9
:0F05AB005BD286900085E004F0E0C3940540B673
:0105BA00221E
:0607EA00A283E433FF22AC
:0A07C600EFB40103D28722C287229C
:10065400E4FDED25E02404F582E43400F583E0FABA
:10066400A3E0D39FEA9E50050DEDB432E5AF0574C7
:10067400D22FFFC3648094805008EFF4044480FDBB
:060684008002AD07AF0586
:01068A00224D
:10051700E4900085F0A3F0A3F07F0112073B900061
:1005270086E02FF0900085E03EF0900087E004F031
:10053700E0C3940A40E3900085E0FEA3E0FF7C005F
:100547007D0A1200D5900085EEF0A3EFF012065455
:10055700900095EFF09000947401F0FB7A00799584
:04056700FD0206BFCC
:100719001207EABF0107E4900095F0800690009562
:100729007401F09000947401F0FB7A007995FD0250
:0207390006BFF9
:1004B80012077B12068B12060A1207E31207D012E4
:1004C80007A27FF47E0112075B12034F12056B121D
:1004D80007F0EF60FA7B017A00798412078F9000A9
:1004E80084E014601214601114601614601A240455
:1004F80070DD12051780D8800312051712071980BE
:0F050800CE7F011207C680C7E4FF1207C680C06E
:0704A00044009F00002580CD
:0A07D00053847F5384BF438410223A
:0B07B000E58430E0037F01227F00227F
:0907DA00E5851200C35384FE22E0
:0B07BB008F85E58430E1FB5384FD22B4
:0B06BF00900088EBF0A3EAF0A3E9F044
:1006CA00E4FEEEC39D501A900088E0FBA3E0FAA373
:1006DA00E0F98E82758300120096FF1207BB0E8026
:0106EA00E12E
:0106EB0022EC
:0704A70044009A016E3600CB
:10068B005394F75393F743947053938F439480533E
:10069B00937F4392085391F75392FD5391FD43BAC5
:1006AB000453CAFB53C9FB43CA0853C9F743CA10C7
:0406BB0053C9EF220E
:10077B0043BA8090FE017401F090FE02E030E0F984
:04078B0053BA7F22BC
:10060A00E47F04FEFDFC90009FE0F8A3E0F9A3E07C
:10061A00FAA3E0FB12012AA804A905AA06AB0790CF
:10062A00009AE0FCA3E0FDA3E0FEA3E0FF1201B5FF
:10063A00C3E49FFFE49EFEEFF5D7EEF5D6438F04A1
:09064A00438E04538EF7438E1019
:010653002284
:0707E30043AF1043A8802280
:030093000205BBA8
:1005BB00C0E0C0F0C083C082C0D075D000C000C006
:1005CB0001C002C003C004C005C006C0071207B0BB
:1005DB00BF01117B017A00799E1207DA90009EE031
:1005EB00FF1206ECD007D006D005D004D003D00202
:0F05FB00D001D000D0D0D082D083D0F0D0E03269
:0904AE004200A300004100A5007A
:1006EC009000A4E09000A3F0A3EFF09000A3E064CE
:1006FC00A16006E49000A5F0229000A4E0D394043D
:0D070C004004E4A3F0229000A57401F02247
:0607F0009000A5E0FF22CD
:10078F009000A5E0600C9000A4E01200C3E490007C
:03079F00A5F022A0
:0E07A20043BC8043DE2053DEF07F0102073BA4
:10073B0053BCDF53BCF0EF42BC43BC40E5BC30E5DF
:0F074B00FBAFBDEF7F00FEADBEEF2DFFE43EFE26
:01075A00227C
:10075B00E4FDFCC3ED9FEC9E5015E4FBFA0BBB00D4
:0F076B00010ABA04F8BB4CF50DBD00010C80E487
:01077A00225C
:03000000020003F8
:0C000300787FE4F6D8FD75810702004A02
:10009600BB010CE58229F582E5833AF583E022501F
:1000A60006E92582F8E622BBFE06E92582F8E22269
:0D00B600E58229F582E5833AF583E4932283
:1000C300BB010689828A83F0225002F722BBFE011C
:0200D300F32216
:1000D500BC000BBE0029EF8DF084FFADF022E4CC0F
:1000E500F875F008EF2FFFEE33FEEC33FCEE9DECD8
:1000F500984005FCEE9DFE0FD5F0E9E4CEFD22ED1E
:10010500F8F5F0EE8420D21CFEADF075F008EF2F67
:10011500FFED33FD4007985006D5F0F222C398FD58
:050125000FD5F0EA22F5
:10012A00E88FF0A4CC8BF0A42CFCE98EF0A42CFC74
:10013A008AF0EDA42CFCEA8EF0A4CDA8F08BF0A4F2
:10014A002DCC3825F0FDE98FF0A42CCD35F0FCEB51
:10015A008EF0A4FEA9F0EB8FF0A4CFC5F02ECD3916
:0F016A00FEE43CFCEAA42DCE35F0FDE43CFC2283
:1001790075F008758200EF2FFFEE33FECD33CDCC3D
:1001890033CCC58233C5829BED9AEC99E5829840C0
:100199000CF582EE9BFEED9AFDEC99FC0FD5F0D69D
:1001A900E4CEFBE4CDFAE4CCF9A88222B800C1B9C7
:1001B9000059BA002DEC8BF084CFCECDFCE5F0CB05
:1001C900F97818EF2FFFEE33FEED33FDEC33FCEB3E
:1001D90033FB10D703994004EB99FB0FD8E5E4F9F9
:1001E900FA227818EF2FFFEE33FEED33FDEC33FCE6
:1001F900C933C910D7059BE99A4007EC9BFCE99ADA
:10020900F90FD8E0E4C9FAE4CCFB2275F010EF2F1E
:10021900FFEE33FEED33FDCC33CCC833C810D7071E
:100229009BEC9AE899400AED9BFDEC9AFCE899F859
:0E0239000FD5F0DAE4CDFBE4CCFAE4C8F922EC
:10024700EB9FF5F0EA9E42F0E99D42F0E89C45F00D
:010257002284
:10025800E86010ECA2E713FCED13FDEE13FEEF13BC
:04026800FFD8F022A9
:10026C00E8600FEFC333FFEE33FEED33FDEC33FCF0
:03027C00D8F12294
:0C027F00ECF0A3EDF0A3EEF0A3EFF022F2
:10000F000204B8E493A3F8E493A34003F68001F24B
:10001F0008DFF48029E493A3F85407240CC8C333F2
:10002F00C4540F4420C8834004F456800146F6DFC1
:10003F00E4800B010204081020408090040CE47E41
:10004F00019360BCA3FF543F30E509541FFEE493B6
:10005F00A360010ECF54C025E060A840B8E493A37D
:10006F00FAE493A3F8E493A3C8C582C8CAC583CAA8
:10007F00F0A3C8C582C8CAC583CADFE9DEE780BE60
:0104B7000044
:00000001FF
