:100AC300020A01AE023E00040444000000001824A0
:100AD300001F867F00F6800A00FC0001000001AEC3
:100AE3000000000000000000020801AC023C00040A
:100AF3000440000EC504180C001F867F00F6800A10
:100B030000FC0001000001AE000000000000000036
:1006E600C285C2A7D280D283E4F52BE52A54C0F591
:1006F6002AE529F529E4F528E52B453FF52BE52ADA
:10070600453EF52AE529F529E528F528E4F533F5EA
:1007160032E531F531E4F530E533450BF533E532B5
:10072600450AF532E531F531E530F530E4F537F5D2
:1007360036E53554F0F535E4F534E5374547F53714
:10074600E5364546F536E5354545F535E534454462
:10075600F534E4F513E51254C0F512E511F511E48C
:10076600F510E513453DF513E512453CF512E51187
:10077600F511E510F510E4F51BF51AE519F519E480
:10078600F518E51B4509F51BE51A4508F51AE5199F
:10079600F519E518F518E4F51FF51EE51D54F0F5F5
:1007A6001DE4F51CE51F4543F51FE51E4542F51EF4
:0D07B600E51D4541F51DE51C4540F51C22E3
:10086300E48F55F554F553F552AE54AD53AC52786D
:10087300181205B68F558E548D538C52E55545503D
:10088300F555E554454FF554E553454EF553E552BB
:10089300454DF552C283E4F551E4FFFEFD7C04A906
:1008A30051A8011205A28F598E588D578C56C285B7
:1008B300E5555559FFE5545558FEE5535557FDE5A4
:1008C300525556FCAB59AA58A957A856C3120591BD
:1008D3007004D2A78002C2A7D2850551E551B41B8B
:0708E300B8C285C2A7D28351
:0108EA0022EB
:1008EB00E48F55F554F553F552AE54AD53AC5278E5
:1008FB00181205B68F558E548D538C52E5554550B5
:10090B00F555E554454FF554E553454EF553E55232
:10091B00454DF552C280E4F551E4FFFEFD7C04A980
:10092B0051A8011205A28F598E588D578C56C2852E
:10093B00E5555559FFE5545558FEE5535557FDE51B
:10094B00525556FCAB59AA58A957A856C312059134
:10095B007004D2A78002C2A7D2850551E551B41B02
:07096B00B8C285C2A7D280CB
:010972002262
:100BF600E4F54BE54B25E025E02424F81205C98FE2
:100C0600508E4F8D4E8C4DAF4B120863D2837F01B1
:100C16007E00120CDBC2837F017E00120CDBD283C6
:090C2600054BE54BC3940540CADF
:010C2F0022A2
:100C3000E4F54BE54B25E025E0240CF81205C98FBF
:100C4000508E4F8D4E8C4DAF4B1208EBD2807F01F2
:100C50007E00120CDBC2807F017E00120CDBD28092
:090C6000054BE54BC3940540CAA5
:010C69002268
:060D8900A283E433FF2207
:100973007469120420900001746E12043290000214
:1009830074691204329000037474120432900004E8
:100993007420120432900005747012043290000621
:1009A3007472120432900007746F120432900008BC
:1009B3007463120432900009746512043290000AC1
:1009C300747312043290000B747312043290000C8F
:1009D300742E12043290000D742E12043290000E05
:1009E300742E12043290000F740A1204327F102204
:1007C30074771204209000017461120432900002C5
:1007D300746912043290000374741204329000049A
:1007E30074201204329000057466120432900006DD
:1007F300746F12043290000774721204329000086E
:100803007420120432900009744612043290000AD4
:10081300745312043290000B742012043290000CB3
:10082300746C12043290000D746F12043290000E37
:10083300746312043290000F746B12043290001030
:10084300742E120432900011742E1204329000128E
:10085300742E120432900013740A1204327F14228D
:1009F30074461204209000017453120432900002D2
:100A03007420120432900003746C120432900004B8
:100A1300746F12043290000574631204329000065E
:100A2300746B12043290000774651204329000084C
:100A33007464120432900009742E12043290000A76
:100A4300742E12043290000B742E12043290000C98
:080A5300740A1204327F0D2227
:100A5B007446120420900001745312043290000269
:100A6B007420120432900003747512043290000447
:100A7B00746E120432900005746C120432900006EE
:100A8B00746F1204329000077463120432900008E2
:100A9B00746B120432900009742E12043290000A07
:100AAB00742E12043290000B742E12043290000C30
:080ABB00740A1204327F0D22BF
:0E05D5008B678A6889698F6D8E6C8D6B8C6A5E
:1005E3001203728F6EE56E2430AB67AA68A9691295
:1005F3000420AB67AA68A969900001742E12043223
:10060300E4FFFE7D207C41AB6DAA6CA96BA86A1246
:10061300018EC004C005C006C007AF6E7E007C001B
:100623007D0A120454AC06AD07E4120339A804A9E9
:1006330005AA06AB07D007D006D005D0041200994F
:100643001203728F6FE56F2430AB67AA68A96990B4
:100653000002120432E4FFFE7DC87C42AB6DAA6C3B
:10066300A96BA86A12018EC004C005C006C007AFFB
:100673006E7E007C007D64120454AC06AD07E41268
:100683000339A804A905AA06AB07D007D006D005ED
:10069300D004120099C004C005C006C007AF6F7E26
:1006A300007C007D0A120454AC06AD07E412033942
:1006B300A804A905AA06AB07D007D006D005D00425
:1006C3001200991203728F6FE56F2430AB67AA682B
:1006D300A969900003120432900004740A120432D0
:0206E3007F0591
:0106E50022F2
:100B7200E4FF120CFB7F647E00120CDBE4FF120C1C
:100B8200FBAD07AC06E41203398F788E778D768C35
:100B920075E4FBFA798078451202978F788E778D0B
:100BA200768C75E4FBFA7940784012018E8F788E4C
:050BB200778D768C75C3
:010BB700221B
:010D98002238
:100C6A00E4F549F54A120D2E120C91120BB8120D29
:100C7A0082120D65120D6F7FF47E01120CDB1206D3
:070C8A00E6120BF6020C302C
:060B1300047900002580BA
:0A0D650053847F5384BF438410229F
:0B0D4F00E58430E0037F01227F0022DA
:090D7900E5851204205384FE22DA
:0B0D5A008F85E58430E1FB5384FD220F
:100D1800E4FFEFC39D50030F80F88F8275830012A4
:060D280003F3FF020D5A67
:060B19000470016E3600BD
:100C91005396BF5395BF43968053957F4394015319
:100CA10093FE4394085393F74394205393DF539453
:050CB100405393BF2237
:100D2E0043BA8090FE017401F090FE02E030E0F9CB
:040D3E0053BA7F2203
:100BB800E47F04FEFDFCAB7CAA7BA97AA879120429
:100BC80066A804A905AA06AB07AF73AE72AD71ACEF
:100BD800701204F1C3E49FFFE49EFEEFF5D7EEF533
:0D0BE800D6438F04438E04538EF7438E10C6
:010BF50022DD
:070D820043AF1043A88022DB
:03009300020B2637
:100B2600C0E0C0F0C083C082C0D075D000C000C095
:100B360001C002C003C004C005C006C007120D4FA5
:100B4600BF010E7B007A007974120D79AF74120D15
:100B56008FD007D006D005D004D003D002D001D064
:0C0B660000D0D0D082D083D0F0D0E0329C
:060B1F0001650001660003
:060D8F008F5A7565012278
:030D9500AF652225
:0D0D4200E5656008E55A120420E4F565221D
:04008F00E4F565220D
:100CB600E4F57DF57EC3E57E9566E57D94005014EA
:100CC600745B257EF8E6FF120D5A057EE57E70E51B
:040CD600057D80E137
:010CDA0022F7
:0A0D6F0043BC8043DE2053DEF02277
:100CFB0053BCF0EF42BC43BC40E5BC20E0FBAFBDB6
:0C0D0B00EF7F00FEADBEEF2DFFE43EFECA
:010D170022B9
:100CDB00E4FDFCC3ED9FEC9E5015E4FBFA0BBB004F
:0F0CEB00010ABA04F8BB4CF50DBD00010C80E402
:010CFA0022D7
:100096000203DEE86480F8E933E83360110460F0B7
:1000A600ED33EC337009E8FCE9FDEAFEEBFF2204D0
:1000B60060DED3EB9FEA9EE99DE8C2E78CF0C2F7CB
:1000C60095F0400CE8CCF8E9CDF9EACEFAEBCFFB97
:1000D6001203A985D0F05804700320D5B3E8047044
:1000E600075002B2D50203E892D5EC0460F7E4CCDF
:1000F600C0E0C398F8603B94186008400DD0E0FB60
:100106000203C0E4FBFAC9FC8028E830E406E4C92F
:10011600FBE4CAFCE830E305E4C9CACBFCE85407B3
:100126006010F8C3E913F9EA13FAEB13FBEC13FCBE
:10013600D8F130F52FC3E49CFCEF9BFFEE9AFEED61
:1001460099FDD0E0FBEF4E4D4C701222DB0302030B
:10015600E5EC2CFCEF33FFEE33FEED33FDED30E73F
:10016600EB0203C0EF2BFFEE3AFEED39FDD0E0FBCC
:1001760050130BBB00030203E8ED13FDEE13FEEF75
:0801860013FFEC13FC0203C09F
:10018E00EC4D6011E8497017ED33EC3304600DE46B
:10019E00FCFFFEFD22E933E8330470F80203DE12A1
:1001AE0003A958046009E4CC2481500628500902A2
:1001BE0003E82840030203E5C0E0EB4A7044B9802F
:1001CE0006D0E0FB0203D4EF4E701CBD8008EBFF9F
:1001DE00EAFEE9FD80EBE98DF0A4FEE5F002027780
:1001EE00E9CDF9EAFEEBFFEF89F0A4FCE5F0CE894C
:1001FE00F0A42EFFE435F0CD89F0A42DFEE435F009
:10020E008067EF4E7005BD80D780C3EF8BF0A4AC36
:10021E00F0EE8BF0A42CFCE435F0F8EF8AF0A42C71
:10022E00E5F038FCE433CB8DF0A42CFCE5F03BF884
:10023E00EE8AF0A42CFCE5F038F8E433CF89F0A474
:10024E002CFCE5F038CF3400CE89F0A42FFFE5F07A
:10025E003EFEE433C98DF0A42EFEE5F039CD8AF0D2
:10026E00A42FFFE5F03EFEE43DFD33D0E0FB50074A
:10027E000BBB000F0203E8EC2CFCEF33FFEE33FE5A
:06028E00ED33FD0203C088
:100294000203E8EC5D046005E8590470030203DE20
:1002A4001203A9580460F6EC4860F2EC7004FDFEF9
:1002B400FF22C860DB2481C85009C398600250063D
:1002C4000203E59850CAF582E9294B4A7005AB82CE
:1002D4000203D475F0007C1A7880C3EF9BEE9AED8C
:1002E40099400DC3EF9BFFEE9AFEED99FDE842F0B5
:1002F400DC23ACF0D0E0FFD0E0FED0E0FDAB822008
:10030400E7101BEB60BAEC2CFCEF33FFEE33FEED91
:1003140033FD0203C0E803F830E705C0F075F000D0
:10032400EF2FFFEE33FEED33FD40B830E7C280AA75
:1003340075F020800E75F010800575F0087D007E44
:10034400007F003392D530D503120583EC3340107F
:10035400EF33FFEE33FEED33FDEC33FCD5F0ED224D
:0E036400E5F0247EA2D513CC92E7CDCEFF2289
:10037200EDD2E7CD33EC3392D524814006E4FFFE83
:10038200FDFC22FCE4CFCECDCC24E0501174FF80E2
:10039200EDC3CC13CCCD13CDCE13CECF13CF04707F
:0703A200F030D5DE020583F7
:1003A900E9D2E7C933E833F892D5EDD2E7CD33EC9A
:0703B90033FC5002B2D52213
:1003C000EC30E7100FBF000C0EBE00080DBD00049E
:1003D0000BEB6014A2D5EB13FCED92E7FD2274FF4A
:1003E000FCFDFEFF22E480F8A2D574FF13FC7D80A3
:0303F000E480EFB7
:03000000020003F8
:0C000300787FE4F6D8FD75817F02004A8A
:1003F300BB010CE58229F582E5833AF583E02250BF
:1004030006E92582F8E622BBFE06E92582F8E22208
:0D041300E58229F582E5833AF583E4932222
:10042000BB010689828A83F0225002F722BBFE01BB
:02043000F322B5
:10043200F8BB010DE58229F582E5833AF583E8F000
:10044200225006E92582C8F622BBFE05E92582C8AC
:02045200F22294
:10045400EF8DF0A4A8F0CF8CF0A428CE8DF0A42EBC
:02046400FE2276
:10046600E88FF0A4CC8BF0A42CFCE98EF0A42CFC35
:100476008AF0EDA42CFCEA8EF0A4CDA8F08BF0A4B3
:100486002DCC3825F0FDE98FF0A42CCD35F0FCEB12
:100496008EF0A4FEA9F0EB8FF0A4CFC5F02ECD39D7
:0F04A600FEE43CFCEAA42DCE35F0FDE43CFC2244
:1004B50075F008758200EF2FFFEE33FECD33CDCCFE
:1004C50033CCC58233C5829BED9AEC99E582984081
:1004D5000CF582EE9BFEED9AFDEC99FC0FD5F0D65E
:1004E500E4CEFBE4CDFAE4CCF9A88222B800C1B988
:1004F5000059BA002DEC8BF084CFCECDFCE5F0CBC6
:10050500F97818EF2FFFEE33FEED33FDEC33FCEBFE
:1005150033FB10D703994004EB99FB0FD8E5E4F9B9
:10052500FA227818EF2FFFEE33FEED33FDEC33FCA6
:10053500C933C910D7059BE99A4007EC9BFCE99A9A
:10054500F90FD8E0E4C9FAE4CCFB2275F010EF2FDF
:10055500FFEE33FEED33FDCC33CCC833C810D707DF
:100565009BEC9AE899400AED9BFDEC9AFCE899F81A
:0E0575000FD5F0DAE4CDFBE4CCFAE4C8F922AD
:0E058300C3E49FFFE49EFEE49DFDE49CFC2289
:10059100EB9FF5F0EA9E42F0E99D42F0E89C45F0C0
:0105A1002237
:1005A200E86010ECA2E713FCED13FDEE13FEEF136F
:0405B200FFD8F0225C
:1005B600E8600FEFC333FFEE33FEED33FDEC33FCA3
:0305C600D8F12247
:0C05C900E6FC08E6FD08E6FE08E6FF225E
:10000F00020C6AE493A3F8E493A34003F68001F291
:10001F0008DFF48029E493A3F85407240CC8C333F2
:10002F00C4540F4420C8834004F456800146F6DFC1
:10003F00E4800B0102040810204080900AC3E47E84
:10004F00019360BCA3FF543F30E509541FFEE493B6
:10005F00A360010ECF54C025E060A840B8E493A37D
:10006F00FAE493A3F8E493A3C8C582C8CAC583CAA8
:10007F00F0A3C8C582C8CAC583CADFE9DEE780BE60
:010B250000CF
:00000001FF
