:10038200020A01AE0224000A02080000180C001F33
:1003920086FF00F6400A00FC0001000001AE0000EA
:0603A20000000000000055
:10029100C285C284D286E4F513E51254C0F512E595
:1002A10011F511E4F510E5134525F513E512452483
:1002B100F512E511F511E510F510E4F51BF51AE558
:1002C10019F519E4F518E51B450BF51BE51A450A67
:1002D100F51AE519F519E518F518E4F51FF51EE508
:1002E1001D54F0F51DE4F51CE51F4509F51FE51E3C
:0D02F1004508F51EE51DF51DE51CF51C2258
:10020900E48F31F530F52FF52EAE30AD2FAC2E78C9
:10021900181201EA8F318E308D2F8C2EE531452C45
:10022900F531E530452BF530E52F452AF52FE52E3B
:100239004529F52EC286E4F52DE4FFFEFD7C04A9CF
:100249002DA8011201D68F358E348D338C32C2859B
:10025900E5315535FFE5305534FEE52F5533FDE5DC
:100269002E5532FCAB35AA34A933A832C31201C5C5
:100279007004D2848002C284D285052DE52DB41B79
:07028900B8C285C284D286D1
:01029000224B
:1003BB00E4F527E52725E025E0240CF81201FD8F55
:1003CB002C8E2B8D2A8C29AF271202090527E527A6
:0503DB00C3940540DEA3
:0103E00022FA
:0604A300A283E433FF22F6
:100443001204541202911203BB1204A3BF01FA80D7
:01045300FEAA
:0603A8000448000025805E
:0A0486004384805384BF4384102296
:09049A00E5851200965384FE2250
:0B047B008F85E58430E1FB5384FD22F7
:0603AE00044300B71B0030
:0D0454005394F75393F743947053938F2202
:0D04610090FE017402F090FE007410F02275
:10034400E47F04FEFDFCAB4BAA4AA949A84812006D
:10035400A8A804A905AA06AB07AF46AE45AD44ACB0
:1003640043120133C3E49FFFE49EFEEFF5D7EEF59D
:0D037400D6438F40438E04538EF7438E1006
:010381002259
:04008F0043AF102249
:030093000202FE68
:1002FE00C0E0C0F0C083C082C0D075D000C000C0C6
:10030E0001C002C003C004C005C006C0077B007A4E
:10031E0000794712049AAF471204A9D007D006D02D
:10032E0005D004D003D002D001D000D0D0D082D0DE
:06033E0083D0F0D0E03294
:0603B400014100014200BE
:0604A9008F3675410122AF
:0304B300AF412234
:0D046E00E5416008E536120096E4F54122F4
:0404AF00E4F541220D
:1003E100E4F54CF54DC3E54D9542E54C94005014B0
:1003F1007437254DF8E6FF12047B054DE54D70E598
:04040100054C80E145
:0104050022D4
:0A04900043BC8043DE2053DEF0225F
:1004260053BCF0EF42BC43BC40E5BC20E0FBAFBD93
:0C043600EF7F00FEADBEEF2DFFE43EFEA8
:010442002297
:10040600E4FDFCC3ED9FEC9E5015E4FBFA0BBB002C
:0F041600010ABA04F8BB4CF50DBD00010C80E4DF
:0104250022B4
:03000000020003F8
:0C000300787FE4F6D8FD75814D02004ABC
:10009600BB010689828A83F0225002F722BBFE0149
:0200A600F32243
:1000A800E88FF0A4CC8BF0A42CFCE98EF0A42CFCF7
:1000B8008AF0EDA42CFCEA8EF0A4CDA8F08BF0A475
:1000C8002DCC3825F0FDE98FF0A42CCD35F0FCEBD4
:1000D8008EF0A4FEA9F0EB8FF0A4CFC5F02ECD3999
:0F00E800FEE43CFCEAA42DCE35F0FDE43CFC2206
:1000F70075F008758200EF2FFFEE33FECD33CDCCC0
:1001070033CCC58233C5829BED9AEC99E582984042
:100117000CF582EE9BFEED9AFDEC99FC0FD5F0D61F
:10012700E4CEFBE4CDFAE4CCF9A88222B800C1B949
:100137000059BA002DEC8BF084CFCECDFCE5F0CB87
:10014700F97818EF2FFFEE33FEED33FDEC33FCEBC0
:1001570033FB10D703994004EB99FB0FD8E5E4F97B
:10016700FA227818EF2FFFEE33FEED33FDEC33FC68
:10017700C933C910D7059BE99A4007EC9BFCE99A5C
:10018700F90FD8E0E4C9FAE4CCFB2275F010EF2FA1
:10019700FFEE33FEED33FDCC33CCC833C810D707A1
:1001A7009BEC9AE899400AED9BFDEC9AFCE899F8DC
:0E01B7000FD5F0DAE4CDFBE4CCFAE4C8F9226F
:1001C500EB9FF5F0EA9E42F0E99D42F0E89C45F090
:0101D5002207
:1001D600E86010ECA2E713FCED13FDEE13FEEF133F
:0401E600FFD8F0222C
:1001EA00E8600FEFC333FFEE33FEED33FDEC33FC73
:0301FA00D8F12217
:0C01FD00E6FC08E6FD08E6FE08E6FF222E
:10000F00020443E493A3F8E493A34003F68001F2C0
:10001F0008DFF48029E493A3F85407240CC8C333F2
:10002F00C4540F4420C8834004F456800146F6DFC1
:10003F00E4800B0102040810204080900382E47ECC
:10004F00019360BCA3FF543F30E509541FFEE493B6
:10005F00A360010ECF54C025E060A840B8E493A37D
:10006F00FAE493A3F8E493A3C8C582C8CAC583CAA8
:10007F00F0A3C8C582C8CAC583CADFE9DEE780BE60
:0103BA000042
:00000001FF
