:100B7300020C005602260002040800000000180EB2
:100B8300001F86FF00F6400A00FC0001000001AED2
:080B930000000000000000005A
:10094700C285C284D286E4F515E51454C0F514E5D2
:1009570013F513E4F512E5154527F515E5144526B6
:10096700F514E513F513E512F512E4F51DF51CE58D
:100977001BF51BE4F51AE51D450DF51DE51C450C9A
:10098700F51CE51BF51BE51AF51AE4F521F520E53D
:100997001F54F0F51FE4F51EE521450BF521E52071
:1009A700450AF520E51F4509F51FE51E4508F51E13
:0109B700221D
:10083F00E48F4EF54DF54CF54BAE4DAD4CAC4B78C2
:10084F00181205B68F4E8E4D8D4C8C4BE54E45498B
:10085F00F54EE54D4548F54DE54C4547F54CE54B17
:10086F004546F54BC286E4F54AE4FFFEFD7C04A93C
:10087F004AA8011205A28F528E518D508C4FC285FE
:10088F00E54E5552FFE54D5551FEE54C5550FDE5F2
:10089F004B554FFCAB52AA51A950A84FC31205910B
:1008AF007004D2848002C284D285054AE54AB41B03
:0708BF00B8C285C284D28695
:0108C600220F
:100BD600E4F544E54425E025E0240EF81205C98F26
:100BE600498E488D478C46AF4412083F0544E5447C
:050BF600C3940540DE80
:010BFB0022D7
:060CFA00A283E433FF2297
:1008C7007469120420900001746E120432900002C1
:1008D7007469120432900003747412043290000495
:1008E70074201204329000057470120432900006CE
:1008F7007472120432900007746F12043290000869
:100907007463120432900009746512043290000A6D
:10091700747312043290000B747312043290000C3B
:10092700742E12043290000D742E12043290000EB1
:10093700742E12043290000F740A1204327F1022B0
:060799007B007A007929C3
:10079F0074771204209000017461120432900002E9
:1007AF0074691204329000037474120432900004BE
:1007BF007420120432900005746612043290000601
:1007CF00746F120432900007747212043290000892
:1007DF007420120432900009744612043290000AF9
:1007EF00745312043290000B742012043290000CD8
:1007FF00746C12043290000D746F12043290000E5C
:10080F00746312043290000F746B12043290001054
:10081F00742E120432900011742E120432900012B2
:10082F00742E120432900013740A1204327F1422B1
:0609B8007B007A007929A2
:1009BE007446120420900001745312043290000207
:1009CE007420120432900003746C120432900004EE
:1009DE00746F120432900005746312043290000694
:1009EE00746B120432900007746512043290000882
:1009FE007464120432900009742E12043290000AAC
:100A0E00742E12043290000B742E12043290000CCD
:080A1E00740A1204327F0D225C
:100A2600744612042090000174531204329000029E
:100A3600742012043290000374751204329000047C
:100A4600746E120432900005746C12043290000623
:100A5600746F120432900007746312043290000817
:100A6600746B120432900009742E12043290000A3C
:100A7600742E12043290000B742E12043290000C65
:080A8600740A1204327F0D22F4
:0E05D5008B488A49894A8F4E8E4D8D4C8C4B37
:1005E3001203728F4FE54F2430AB48AA49A94A1230
:1005F3000420AB48AA49A94A900001742E12043280
:10060300E4FFFE7D207C41AB4EAA4DA94CA84B12C2
:10061300018EC004C005C006C007AF4F7E007C003A
:100623007D0A120454AC06AD07E4120339A804A9E9
:1006330005AA06AB07D007D006D005D0041200994F
:100643001203728F50E5502430AB48AA49A94A904F
:100653000002120432E4FFFE7DC87C42AB4EAA4D79
:10066300A94CA84B12018EC004C005C006C007AF39
:100673004F7E007C007D64120454AC06AD07E41287
:100683000339A804A905AA06AB07D007D006D005ED
:10069300D004120099C004C005C006C007AF507E45
:1006A300007C007D0A120454AC06AD07E412033942
:1006B300A804A905AA06AB07D007D006D005D00425
:1006C3001200991203728F50E5502430AB48AA49A7
:1006D300A94A900003120432900004740A120432EF
:0206E3007F0591
:0106E50022F2
:100A8E00E4FF120C897F647E00120C69E4FF120CE5
:100A9E0089AD07AC06E41203398F478E468D458C1F
:100AAE0044E4FBFA798078451202978F478E468D83
:100ABE00458C44E4FBFA7940784012018E8F478EC4
:100ACE00468D458C447B007A0079291205D58F28F6
:0B0ADE007B007A007929AD28020C464D
:100BFC00120CFAEF64017B007A0079296007120A63
:100C0C00268F2880051209BE8F287B007A0079294F
:050C1C00AD28020C46AA
:1006E600E4F543120BAE120B35120CF3120CD612B4
:1006F6000CE07B007A0079291208C78F28AD2812F2
:100706000C467FD07E07120C69120947120BD612CF
:1007160007998F28AD28120C467FE87E03120C69D4
:10072600120CFABF010A1209B88F28AD28120C461E
:10073600120CFAEF6401601C120947120BD612075D
:10074600998F28AD28120C467FE87E03120C697536
:1007560043018012E543B4010D1209B88F28AD2874
:10076600120C46E4F543120D06EF60C47B007A00D6
:100776007942120CB3E54214600C14600E24027028
:10078600AF120A8E80AA120BFC80A5120A8E120BDB
:03079600FC809D47
:060B9B0004650000258046
:0A0CD60053847F5384BF438410222F
:0B0CC000E58430E0037F01227F00226A
:090CEA00E5851204205384FE226A
:0B0CCB008F85E58430E1FB5384FD229F
:060C46008B488A49894A2F
:100C4C00E4FEEEC39D5015AB48AA49A94A8E8275A5
:0C0C5C0083001203F3FF120CCB0E80E6A5
:010C68002269
:060BA1000460016E360045
:100BAE005394F75393F743947053938F4392085390
:100BBE0091F75392FE5391FE43BA0453CAFB53C9A5
:080BCE00FB43CA0853C9F722DA
:0D0CA60090FE017401F090FE007418F02221
:100B3500E47F04FEFDFCAB68AA67A966A8651204FC
:100B450066A804A905AA06AB07AF63AE62AD61ACA2
:100B5500601204F1C3E49FFFE49EFEEFF5D7EEF5C6
:0D0B6500D6438F04438E04538EF7438E1049
:010B72002260
:070CF30043AF1043A880226B
:03009300020AE975
:100AE900C0E0C0F0C083C082C0D075D000C000C0D3
:100AF90001C002C003C004C005C006C007120CC073
:100B0900BF010E7B007A007964120CEAAF64120D02
:100B190000D007D006D005D004D003D002D001D030
:0C0B290000D0D0D082D083D0F0D0E032D9
:060BA700015E00015F0089
:060D00008F53755E012215
:030D0600AF5E22BB
:0D0CB300E55E6008E553120420E4F55E22C2
:04008F00E4F55E2214
:100C2100E4F569F56AC3E56A955FE56994005014D6
:100C31007454256AF8E6FF120CCB056AE56A70E583
:040C4100056980E1E0
:010C4500228C
:0A0CE00043BC8043DE2053DEF02207
:100C890053BCF0EF42BC43BC40E5BC20E0FBAFBD28
:0C0C9900EF7F00FEADBEEF2DFFE43EFE3D
:010CA500222C
:100C6900E4FDFCC3ED9FEC9E5015E4FBFA0BBB00C1
:0F0C7900010ABA04F8BB4CF50DBD00010C80E474
:010C88002249
:100096000203DEE86480F8E933E83360110460F0B7
:1000A600ED33EC337009E8FCE9FDEAFEEBFF2204D0
:1000B60060DED3EB9FEA9EE99DE8C2E78CF0C2F7CB
:1000C60095F0400CE8CCF8E9CDF9EACEFAEBCFFB97
:1000D6001203A985D0F05804700320D5B3E8047044
:1000E600075002B2D50203E892D5EC0460F7E4CCDF
:1000F600C0E0C398F8603B94186008400DD0E0FB60
:100106000203C0E4FBFAC9FC8028E830E406E4C92F
:10011600FBE4CAFCE830E305E4C9CACBFCE85407B3
:100126006010F8C3E913F9EA13FAEB13FBEC13FCBE
:10013600D8F130F52FC3E49CFCEF9BFFEE9AFEED61
:1001460099FDD0E0FBEF4E4D4C701222DB0302030B
:10015600E5EC2CFCEF33FFEE33FEED33FDED30E73F
:10016600EB0203C0EF2BFFEE3AFEED39FDD0E0FBCC
:1001760050130BBB00030203E8ED13FDEE13FEEF75
:0801860013FFEC13FC0203C09F
:10018E00EC4D6011E8497017ED33EC3304600DE46B
:10019E00FCFFFEFD22E933E8330470F80203DE12A1
:1001AE0003A958046009E4CC2481500628500902A2
:1001BE0003E82840030203E5C0E0EB4A7044B9802F
:1001CE0006D0E0FB0203D4EF4E701CBD8008EBFF9F
:1001DE00EAFEE9FD80EBE98DF0A4FEE5F002027780
:1001EE00E9CDF9EAFEEBFFEF89F0A4FCE5F0CE894C
:1001FE00F0A42EFFE435F0CD89F0A42DFEE435F009
:10020E008067EF4E7005BD80D780C3EF8BF0A4AC36
:10021E00F0EE8BF0A42CFCE435F0F8EF8AF0A42C71
:10022E00E5F038FCE433CB8DF0A42CFCE5F03BF884
:10023E00EE8AF0A42CFCE5F038F8E433CF89F0A474
:10024E002CFCE5F038CF3400CE89F0A42FFFE5F07A
:10025E003EFEE433C98DF0A42EFEE5F039CD8AF0D2
:10026E00A42FFFE5F03EFEE43DFD33D0E0FB50074A
:10027E000BBB000F0203E8EC2CFCEF33FFEE33FE5A
:06028E00ED33FD0203C088
:100294000203E8EC5D046005E8590470030203DE20
:1002A4001203A9580460F6EC4860F2EC7004FDFEF9
:1002B400FF22C860DB2481C85009C398600250063D
:1002C4000203E59850CAF582E9294B4A7005AB82CE
:1002D4000203D475F0007C1A7880C3EF9BEE9AED8C
:1002E40099400DC3EF9BFFEE9AFEED99FDE842F0B5
:1002F400DC23ACF0D0E0FFD0E0FED0E0FDAB822008
:10030400E7101BEB60BAEC2CFCEF33FFEE33FEED91
:1003140033FD0203C0E803F830E705C0F075F000D0
:10032400EF2FFFEE33FEED33FD40B830E7C280AA75
:1003340075F020800E75F010800575F0087D007E44
:10034400007F003392D530D503120583EC3340107F
:10035400EF33FFEE33FEED33FDEC33FCD5F0ED224D
:0E036400E5F0247EA2D513CC92E7CDCEFF2289
:10037200EDD2E7CD33EC3392D524814006E4FFFE83
:10038200FDFC22FCE4CFCECDCC24E0501174FF80E2
:10039200EDC3CC13CCCD13CDCE13CECF13CF04707F
:0703A200F030D5DE020583F7
:1003A900E9D2E7C933E833F892D5EDD2E7CD33EC9A
:0703B90033FC5002B2D52213
:1003C000EC30E7100FBF000C0EBE00080DBD00049E
:1003D0000BEB6014A2D5EB13FCED92E7FD2274FF4A
:1003E000FCFDFEFF22E480F8A2D574FF13FC7D80A3
:0303F000E480EFB7
:03000000020003F8
:0C000300787FE4F6D8FD75816A02004A9F
:1003F300BB010CE58229F582E5833AF583E02250BF
:1004030006E92582F8E622BBFE06E92582F8E22208
:0D041300E58229F582E5833AF583E4932222
:10042000BB010689828A83F0225002F722BBFE01BB
:02043000F322B5
:10043200F8BB010DE58229F582E5833AF583E8F000
:10044200225006E92582C8F622BBFE05E92582C8AC
:02045200F22294
:10045400EF8DF0A4A8F0CF8CF0A428CE8DF0A42EBC
:02046400FE2276
:10046600E88FF0A4CC8BF0A42CFCE98EF0A42CFC35
:100476008AF0EDA42CFCEA8EF0A4CDA8F08BF0A4B3
:100486002DCC3825F0FDE98FF0A42CCD35F0FCEB12
:100496008EF0A4FEA9F0EB8FF0A4CFC5F02ECD39D7
:0F04A600FEE43CFCEAA42DCE35F0FDE43CFC2244
:1004B50075F008758200EF2FFFEE33FECD33CDCCFE
:1004C50033CCC58233C5829BED9AEC99E582984081
:1004D5000CF582EE9BFEED9AFDEC99FC0FD5F0D65E
:1004E500E4CEFBE4CDFAE4CCF9A88222B800C1B988
:1004F5000059BA002DEC8BF084CFCECDFCE5F0CBC6
:10050500F97818EF2FFFEE33FEED33FDEC33FCEBFE
:1005150033FB10D703994004EB99FB0FD8E5E4F9B9
:10052500FA227818EF2FFFEE33FEED33FDEC33FCA6
:10053500C933C910D7059BE99A4007EC9BFCE99A9A
:10054500F90FD8E0E4C9FAE4CCFB2275F010EF2FDF
:10055500FFEE33FEED33FDCC33CCC833C810D707DF
:100565009BEC9AE899400AED9BFDEC9AFCE899F81A
:0E0575000FD5F0DAE4CDFBE4CCFAE4C8F922AD
:0E058300C3E49FFFE49EFEE49DFDE49CFC2289
:10059100EB9FF5F0EA9E42F0E99D42F0E89C45F0C0
:0105A1002237
:1005A200E86010ECA2E713FCED13FDEE13FEEF136F
:0405B200FFD8F0225C
:1005B600E8600FEFC333FFEE33FEED33FDEC33FCA3
:0305C600D8F12247
:0C05C900E6FC08E6FD08E6FE08E6FF225E
:10000F000206E6E493A3F8E493A34003F68001F21B
:10001F0008DFF48029E493A3F85407240CC8C333F2
:10002F00C4540F4420C8834004F456800146F6DFC1
:10003F00E4800B0102040810204080900B73E47ED3
:10004F00019360BCA3FF543F30E509541FFEE493B6
:10005F00A360010ECF54C025E060A840B8E493A37D
:10006F00FAE493A3F8E493A3C8C582C8CAC583CAA8
:10007F00F0A3C8C582C8CAC583CADFE9DEE780BE60
:010BAD000047
:00000001FF
