:10041600020C00AC02260004040800000000180EBE
:10042600001F867F00F6800A00FC0001000001AE76
:080436000000000000000000BE
:1002BE00C285C284D286E4F515E51454C0F514E562
:1002CE0013F513E4F512E5154527F515E514452646
:1002DE00F514E513F513E512F512E4F51DF51CE51D
:1002EE001BF51BE4F51AE51D450DF51DE51C450C2A
:1002FE00F51CE51BF51BE51AF51AE4F521F520E5CD
:10030E001F54F0F51FE4F51EE521450BF521E52000
:10031E00450AF520E51F4509F51FE51E4508F51EA2
:01032E0022AC
:10023600E48F33F532F531F530AE32AD31AC30788E
:10024600181202178F338E328D318C30E533452EDE
:10025600F533E532452DF532E531452CF531E530FE
:10026600452BF530C286E4F52FE4FFFEFD7C04A99C
:100276002FA8011202038F378E368D358C34C28536
:10028600E5335537FFE5325536FEE5315535FDE5A3
:10029600305534FCAB37AA36A935A834C31201F25F
:1002A6007004D2848002C284D285052FE52FB41B48
:0702B600B8C285C284D286A4
:0102BD00221E
:10045200E4F529E52925E025E0240EF812022A8F89
:100462002E8E2D8D2C8C2BAF29120236D2867F0137
:100472007E00120503C2867F017E00120503D2862A
:090482000529E529C3940540CACF
:01048B00224E
:0605DE00A283E433FF22BA
:0905C500BF0103D28722C2872284
:10055B007F011204E3AD07AC068C398D3A75380276
:0B056B007B007A007939AD380204C033
:100523001205DEBF0105E4F539800375390175381D
:0C053300017B007A007939AD380204C069
:10032F0012057612048C1203D81205D71205BB12D0
:10033F00058A7FF47E011205031202BE12045212C7
:10034F0005E4EF60FA7B007A007928120598E5281A
:10035F0014601214601114601614601A240470DFF4
:10036F0012055B80DA800312055B12052380D07FB4
:0D037F00011205C580C9E4FF1205C580C24A
:06043E00044300002580CC
:0A05BB0053847F5384BF4384102251
:0B05A500E58430E0037F01227F00228C
:0905CE00E5851200C35384FE22EE
:0B05B0008F85E58430E1FB5384FD22C1
:0604C0008B298A2A892B1A
:1004C600E4FEEEC39D5015AB29AA2AA92B8E827590
:0C04D6008300120096FF1205B00E80E6B5
:0104E20022F7
:06044400043E016E3600CB
:10048C005394F75393F743947053938F439480533F
:10049C00937F4392085391F75392FD5391FD43BAC6
:1004AC000453CAFB53C9FB43CA0853C9F743CA10C8
:0404BC0053C9EF220F
:1005760043BA8090FE017401F090FE02E030E0F98B
:0405860053BA7F22C3
:1003D800E47F04FEFDFCAB46AA45A944A8431200ED
:1003E800D5A804A905AA06AB07AF41AE40AD3FACFE
:1003F8003E120160C3E49FFFE49EFEEFF5D7EEF5E1
:0D040800D6438F04438E04538EF7438E10AD
:0104150022C4
:0705D70043AF1043A880228E
:0300930002038CD9
:10038C00C0E0C0F0C083C082C0D075D000C000C037
:10039C0001C002C003C004C005C006C0071205A5F9
:1003AC00BF010E7B007A0079421205CEAF421205D6
:1003BC003FD007D006D005D004D003D002D001D056
:0C03CC0000D0D0D082D083D0F0D0E0323E
:07044A000247000001490018
:10053F008548478F48E54764A160028007E548D3A7
:0C054F0094044004E4F54922754901229F
:0305E400AF4922FA
:0D059800E5496008E5481200C3E4F549227A
:04008F00E4F5492229
:0E058A0043BC8043DE2053DEF07F010204E319
:1004E30053BCDF53BCF0EF42BC43BC40E5BC30E53A
:0F04F300FBAFBDEF7F00FEADBEEF2DFFE43EFE81
:0105020022D6
:10050300E4FDFCC3ED9FEC9E5015E4FBFA0BBB002E
:0F051300010ABA04F8BB4CF50DBD00010C80E4E1
:0105220022B6
:03000000020003F8
:0C000300787FE4F6D8FD75814902004AC0
:10009600BB010CE58229F582E5833AF583E022501F
:1000A60006E92582F8E622BBFE06E92582F8E22269
:0D00B600E58229F582E5833AF583E4932283
:1000C300BB010689828A83F0225002F722BBFE011C
:0200D300F32216
:1000D500E88FF0A4CC8BF0A42CFCE98EF0A42CFCCA
:1000E5008AF0EDA42CFCEA8EF0A4CDA8F08BF0A448
:1000F5002DCC3825F0FDE98FF0A42CCD35F0FCEBA7
:100105008EF0A4FEA9F0EB8FF0A4CFC5F02ECD396B
:0F011500FEE43CFCEAA42DCE35F0FDE43CFC22D8
:1001240075F008758200EF2FFFEE33FECD33CDCC92
:1001340033CCC58233C5829BED9AEC99E582984015
:100144000CF582EE9BFEED9AFDEC99FC0FD5F0D6F2
:10015400E4CEFBE4CDFAE4CCF9A88222B800C1B91C
:100164000059BA002DEC8BF084CFCECDFCE5F0CB5A
:10017400F97818EF2FFFEE33FEED33FDEC33FCEB93
:1001840033FB10D703994004EB99FB0FD8E5E4F94E
:10019400FA227818EF2FFFEE33FEED33FDEC33FC3B
:1001A400C933C910D7059BE99A4007EC9BFCE99A2F
:1001B400F90FD8E0E4C9FAE4CCFB2275F010EF2F74
:1001C400FFEE33FEED33FDCC33CCC833C810D70774
:1001D4009BEC9AE899400AED9BFDEC9AFCE899F8AF
:0E01E4000FD5F0DAE4CDFBE4CCFAE4C8F92242
:1001F200EB9FF5F0EA9E42F0E99D42F0E89C45F063
:0102020022D9
:10020300E86010ECA2E713FCED13FDEE13FEEF1311
:04021300FFD8F022FE
:10021700E8600FEFC333FFEE33FEED33FDEC33FC45
:03022700D8F122E9
:0C022A00E6FC08E6FD08E6FE08E6FF2200
:10000F0002032FE493A3F8E493A34003F68001F2D5
:10001F0008DFF48029E493A3F85407240CC8C333F2
:10002F00C4540F4420C8834004F456800146F6DFC1
:10003F00E4800B0102040810204080900416E47E37
:10004F00019360BCA3FF543F30E509541FFEE493B6
:10005F00A360010ECF54C025E060A840B8E493A37D
:10006F00FAE493A3F8E493A3C8C582C8CAC583CAA8
:10007F00F0A3C8C582C8CAC583CADFE9DEE780BE60
:0104510000AA
:00000001FF
